{
  "_format": "hh-sol-artifact-1",
  "contractName": "DefiBillingV2",
  "sourceName": "contracts/DefiBillingV2.sol",
  "abi": [
    {
      "inputs": [
        {
          "internalType": "address",
          "name": "_usdtTokenAddress",
          "type": "address"
        },
        {
          "internalType": "address",
          "name": "_avaxPriceFeed",
          "type": "address"
        }
      ],
      "stateMutability": "nonpayable",
      "type": "constructor"
    },
    {
      "inputs": [
        {
          "internalType": "address",
          "name": "owner",
          "type": "address"
        }
      ],
      "name": "OwnableInvalidOwner",
      "type": "error"
    },
    {
      "inputs": [
        {
          "internalType": "address",
          "name": "account",
          "type": "address"
        }
      ],
      "name": "OwnableUnauthorizedAccount",
      "type": "error"
    },
    {
      "inputs": [],
      "name": "ReentrancyGuardReentrantCall",
      "type": "error"
    },
    {
      "anonymous": false,
      "inputs": [
        {
          "indexed": true,
          "internalType": "address",
          "name": "owner",
          "type": "address"
        },
        {
          "indexed": false,
          "internalType": "uint256",
          "name": "avaxAmount",
          "type": "uint256"
        },
        {
          "indexed": false,
          "internalType": "uint256",
          "name": "usdtAmount",
          "type": "uint256"
        }
      ],
      "name": "FundsWithdrawn",
      "type": "event"
    },
    {
      "anonymous": false,
      "inputs": [
        {
          "indexed": true,
          "internalType": "address",
          "name": "previousOwner",
          "type": "address"
        },
        {
          "indexed": true,
          "internalType": "address",
          "name": "newOwner",
          "type": "address"
        }
      ],
      "name": "OwnershipTransferred",
      "type": "event"
    },
    {
      "anonymous": false,
      "inputs": [
        {
          "indexed": true,
          "internalType": "address",
          "name": "user",
          "type": "address"
        },
        {
          "indexed": false,
          "internalType": "uint256",
          "name": "avaxAmount",
          "type": "uint256"
        },
        {
          "indexed": false,
          "internalType": "uint256",
          "name": "usdtAmount",
          "type": "uint256"
        }
      ],
      "name": "PaymentRecorded",
      "type": "event"
    },
    {
      "stateMutability": "nonpayable",
      "type": "fallback"
    },
    {
      "inputs": [],
      "name": "MIN_DEPOSIT_USD",
      "outputs": [
        {
          "internalType": "uint256",
          "name": "",
          "type": "uint256"
        }
      ],
      "stateMutability": "view",
      "type": "function"
    },
    {
      "inputs": [
        {
          "internalType": "address",
          "name": "_user",
          "type": "address"
        }
      ],
      "name": "getPaymentHistory",
      "outputs": [
        {
          "components": [
            {
              "internalType": "uint256",
              "name": "timestamp",
              "type": "uint256"
            },
            {
              "internalType": "uint256",
              "name": "avaxAmount",
              "type": "uint256"
            },
            {
              "internalType": "uint256",
              "name": "usdtAmount",
              "type": "uint256"
            }
          ],
          "internalType": "struct DefiBillingV2.Payment[]",
          "name": "",
          "type": "tuple[]"
        }
      ],
      "stateMutability": "view",
      "type": "function"
    },
    {
      "inputs": [],
      "name": "owner",
      "outputs": [
        {
          "internalType": "address",
          "name": "",
          "type": "address"
        }
      ],
      "stateMutability": "view",
      "type": "function"
    },
    {
      "inputs": [
        {
          "internalType": "uint256",
          "name": "_avaxAmount",
          "type": "uint256"
        },
        {
          "internalType": "uint256",
          "name": "_usdtAmount",
          "type": "uint256"
        }
      ],
      "name": "recordPayment",
      "outputs": [],
      "stateMutability": "payable",
      "type": "function"
    },
    {
      "inputs": [],
      "name": "renounceOwnership",
      "outputs": [],
      "stateMutability": "nonpayable",
      "type": "function"
    },
    {
      "inputs": [
        {
          "internalType": "address",
          "name": "newOwner",
          "type": "address"
        }
      ],
      "name": "transferOwnership",
      "outputs": [],
      "stateMutability": "nonpayable",
      "type": "function"
    },
    {
      "inputs": [],
      "name": "usdtToken",
      "outputs": [
        {
          "internalType": "contract IERC20",
          "name": "",
          "type": "address"
        }
      ],
      "stateMutability": "view",
      "type": "function"
    },
    {
      "inputs": [],
      "name": "withdrawAllFunds",
      "outputs": [],
      "stateMutability": "nonpayable",
      "type": "function"
    },
    {
      "inputs": [
        {
          "internalType": "uint256",
          "name": "_avaxAmount",
          "type": "uint256"
        },
        {
          "internalType": "uint256",
          "name": "_usdtAmount",
          "type": "uint256"
        }
      ],
      "name": "withdrawFunds",
      "outputs": [],
      "stateMutability": "nonpayable",
      "type": "function"
    },
    {
      "stateMutability": "payable",
      "type": "receive"
    }
  ],
  "bytecode": "0x60c06040523480156200001157600080fd5b5060405162001d1438038062001d1483398181016040528101906200003791906200034b565b336001600081905550600073ffffffffffffffffffffffffffffffffffffffff168173ffffffffffffffffffffffffffffffffffffffff1603620000b55760006040517f1e4fbdf7000000000000000000000000000000000000000000000000000000008152600401620000ac9190620003a3565b60405180910390fd5b620000c6816200021b60201b60201c565b50600073ffffffffffffffffffffffffffffffffffffffff168273ffffffffffffffffffffffffffffffffffffffff160362000139576040517f08c379a0000000000000000000000000000000000000000000000000000000008152600401620001309062000421565b60405180910390fd5b600073ffffffffffffffffffffffffffffffffffffffff168173ffffffffffffffffffffffffffffffffffffffff1603620001ab576040517f08c379a0000000000000000000000000000000000000000000000000000000008152600401620001a29062000493565b60405180910390fd5b8173ffffffffffffffffffffffffffffffffffffffff1660808173ffffffffffffffffffffffffffffffffffffffff16815250508073ffffffffffffffffffffffffffffffffffffffff1660a08173ffffffffffffffffffffffffffffffffffffffff16815250505050620004b5565b6000600160009054906101000a900473ffffffffffffffffffffffffffffffffffffffff16905081600160006101000a81548173ffffffffffffffffffffffffffffffffffffffff021916908373ffffffffffffffffffffffffffffffffffffffff1602179055508173ffffffffffffffffffffffffffffffffffffffff168173ffffffffffffffffffffffffffffffffffffffff167f8be0079c531659141344cd1fd0a4f28419497f9722a3daafe3b4186f6b6457e060405160405180910390a35050565b600080fd5b600073ffffffffffffffffffffffffffffffffffffffff82169050919050565b60006200031382620002e6565b9050919050565b620003258162000306565b81146200033157600080fd5b50565b60008151905062000345816200031a565b92915050565b60008060408385031215620003655762000364620002e1565b5b6000620003758582860162000334565b9250506020620003888582860162000334565b9150509250929050565b6200039d8162000306565b82525050565b6000602082019050620003ba600083018462000392565b92915050565b600082825260208201905092915050565b7f496e76616c696420555344542061646472657373000000000000000000000000600082015250565b600062000409601483620003c0565b91506200041682620003d1565b602082019050919050565b600060208201905081810360008301526200043c81620003fa565b9050919050565b7f496e76616c696420707269636520666565642061646472657373000000000000600082015250565b60006200047b601a83620003c0565b9150620004888262000443565b602082019050919050565b60006020820190508181036000830152620004ae816200046c565b9050919050565b60805160a051611819620004fb60003960005050600081816103600152818161054e015281816106b1015281816108f301528181610a780152610b5301526118196000f3fe60806040526004361061008a5760003560e01c80637f840e41116100595780637f840e41146101995780638da5cb5b146101c4578063a98ad46c146101ef578063e52531051461021a578063f2fde38b14610243576100ca565b80630b879bc21461011257806349649fbf1461012e578063715018a6146101455780637da2ba7c1461015c576100ca565b366100ca576040517f08c379a00000000000000000000000000000000000000000000000000000000081526004016100c190610f19565b60405180910390fd5b3480156100d657600080fd5b506040517f08c379a000000000000000000000000000000000000000000000000000000000815260040161010990610f85565b60405180910390fd5b61012c60048036038101906101279190610fe0565b61026c565b005b34801561013a57600080fd5b5061014361053d565b005b34801561015157600080fd5b5061015a6107ef565b005b34801561016857600080fd5b50610183600480360381019061017e919061107e565b610803565b60405161019091906111ab565b60405180910390f35b3480156101a557600080fd5b506101ae6108bf565b6040516101bb91906111dc565b60405180910390f35b3480156101d057600080fd5b506101d96108c7565b6040516101e69190611206565b60405180910390f35b3480156101fb57600080fd5b506102046108f1565b6040516102119190611280565b60405180910390f35b34801561022657600080fd5b50610241600480360381019061023c9190610fe0565b610915565b005b34801561024f57600080fd5b5061026a6004803603810190610265919061107e565b610c91565b005b610274610d17565b60008211806102835750600081115b6102c2576040517f08c379a00000000000000000000000000000000000000000000000000000000081526004016102b9906112e7565b60405180910390fd5b600082111561030e5781341461030d576040517f08c379a000000000000000000000000000000000000000000000000000000000815260040161030490611379565b60405180910390fd5b5b600081111561043e576301312d0081101561035e576040517f08c379a0000000000000000000000000000000000000000000000000000000008152600401610355906113e5565b60405180910390fd5b7f000000000000000000000000000000000000000000000000000000000000000073ffffffffffffffffffffffffffffffffffffffff166323b872dd3330846040518463ffffffff1660e01b81526004016103bb93929190611405565b6020604051808303816000875af11580156103da573d6000803e3d6000fd5b505050506040513d601f19601f820116820180604052508101906103fe9190611474565b61043d576040517f08c379a0000000000000000000000000000000000000000000000000000000008152600401610434906114ed565b60405180910390fd5b5b600260003373ffffffffffffffffffffffffffffffffffffffff1673ffffffffffffffffffffffffffffffffffffffff168152602001908152602001600020604051806060016040528042815260200184815260200183815250908060018154018082558091505060019003906000526020600020906003020160009091909190915060008201518160000155602082015181600101556040820151816002015550503373ffffffffffffffffffffffffffffffffffffffff167fc2031f9d5046cf95ac0999bee4c7ffa7d3f21c2182851082f80916894d25d057838360405161052992919061150d565b60405180910390a2610539610d5d565b5050565b610545610d67565b600047905060007f000000000000000000000000000000000000000000000000000000000000000073ffffffffffffffffffffffffffffffffffffffff166370a08231306040518263ffffffff1660e01b81526004016105a59190611206565b602060405180830381865afa1580156105c2573d6000803e3d6000fd5b505050506040513d601f19601f820116820180604052508101906105e6919061154b565b905060008211156106a65760006105fb6108c7565b73ffffffffffffffffffffffffffffffffffffffff168360405161061e906115a9565b60006040518083038185875af1925050503d806000811461065b576040519150601f19603f3d011682016040523d82523d6000602084013e610660565b606091505b50509050806106a4576040517f08c379a000000000000000000000000000000000000000000000000000000000815260040161069b9061160a565b60405180910390fd5b505b6000811115610794577f000000000000000000000000000000000000000000000000000000000000000073ffffffffffffffffffffffffffffffffffffffff1663a9059cbb6106f36108c7565b836040518363ffffffff1660e01b815260040161071192919061162a565b6020604051808303816000875af1158015610730573d6000803e3d6000fd5b505050506040513d601f19601f820116820180604052508101906107549190611474565b610793576040517f08c379a000000000000000000000000000000000000000000000000000000000815260040161078a906114ed565b60405180910390fd5b5b61079c6108c7565b73ffffffffffffffffffffffffffffffffffffffff167ffbc3a599b784fe88772fc5abcc07223f64ca0b13acc341f4fb1e46bef0510eb483836040516107e392919061150d565b60405180910390a25050565b6107f7610d67565b6108016000610dee565b565b6060600260008373ffffffffffffffffffffffffffffffffffffffff1673ffffffffffffffffffffffffffffffffffffffff168152602001908152602001600020805480602002602001604051908101604052809291908181526020016000905b828210156108b45783829060005260206000209060030201604051806060016040529081600082015481526020016001820154815260200160028201548152505081526020019060010190610864565b505050509050919050565b6301312d0081565b6000600160009054906101000a900473ffffffffffffffffffffffffffffffffffffffff16905090565b7f000000000000000000000000000000000000000000000000000000000000000081565b61091d610d67565b600082118061092c5750600081115b61096b576040517f08c379a00000000000000000000000000000000000000000000000000000000081526004016109629061169f565b60405180910390fd5b6000821115610a6c57814710156109b7576040517f08c379a00000000000000000000000000000000000000000000000000000000081526004016109ae90611731565b60405180910390fd5b60006109c16108c7565b73ffffffffffffffffffffffffffffffffffffffff16836040516109e4906115a9565b60006040518083038185875af1925050503d8060008114610a21576040519150601f19603f3d011682016040523d82523d6000602084013e610a26565b606091505b5050905080610a6a576040517f08c379a0000000000000000000000000000000000000000000000000000000008152600401610a619061160a565b60405180910390fd5b505b6000811115610c3657807f000000000000000000000000000000000000000000000000000000000000000073ffffffffffffffffffffffffffffffffffffffff166370a08231306040518263ffffffff1660e01b8152600401610acf9190611206565b602060405180830381865afa158015610aec573d6000803e3d6000fd5b505050506040513d601f19601f82011682018060405250810190610b10919061154b565b1015610b51576040517f08c379a0000000000000000000000000000000000000000000000000000000008152600401610b48906117c3565b60405180910390fd5b7f000000000000000000000000000000000000000000000000000000000000000073ffffffffffffffffffffffffffffffffffffffff1663a9059cbb610b956108c7565b836040518363ffffffff1660e01b8152600401610bb392919061162a565b6020604051808303816000875af1158015610bd2573d6000803e3d6000fd5b505050506040513d601f19601f82011682018060405250810190610bf69190611474565b610c35576040517f08c379a0000000000000000000000000000000000000000000000000000000008152600401610c2c906114ed565b60405180910390fd5b5b610c3e6108c7565b73ffffffffffffffffffffffffffffffffffffffff167ffbc3a599b784fe88772fc5abcc07223f64ca0b13acc341f4fb1e46bef0510eb48383604051610c8592919061150d565b60405180910390a25050565b610c99610d67565b600073ffffffffffffffffffffffffffffffffffffffff168173ffffffffffffffffffffffffffffffffffffffff1603610d0b5760006040517f1e4fbdf7000000000000000000000000000000000000000000000000000000008152600401610d029190611206565b60405180910390fd5b610d1481610dee565b50565b600260005403610d53576040517f3ee5aeb500000000000000000000000000000000000000000000000000000000815260040160405180910390fd5b6002600081905550565b6001600081905550565b610d6f610eb4565b73ffffffffffffffffffffffffffffffffffffffff16610d8d6108c7565b73ffffffffffffffffffffffffffffffffffffffff1614610dec57610db0610eb4565b6040517f118cdaa7000000000000000000000000000000000000000000000000000000008152600401610de39190611206565b60405180910390fd5b565b6000600160009054906101000a900473ffffffffffffffffffffffffffffffffffffffff16905081600160006101000a81548173ffffffffffffffffffffffffffffffffffffffff021916908373ffffffffffffffffffffffffffffffffffffffff1602179055508173ffffffffffffffffffffffffffffffffffffffff168173ffffffffffffffffffffffffffffffffffffffff167f8be0079c531659141344cd1fd0a4f28419497f9722a3daafe3b4186f6b6457e060405160405180910390a35050565b600033905090565b600082825260208201905092915050565b7f446972656374206465706f7369747320617265206e6f7420616c6c6f77656400600082015250565b6000610f03601f83610ebc565b9150610f0e82610ecd565b602082019050919050565b60006020820190508181036000830152610f3281610ef6565b9050919050565b7f46756e6374696f6e20646f6573206e6f74206578697374000000000000000000600082015250565b6000610f6f601783610ebc565b9150610f7a82610f39565b602082019050919050565b60006020820190508181036000830152610f9e81610f62565b9050919050565b600080fd5b6000819050919050565b610fbd81610faa565b8114610fc857600080fd5b50565b600081359050610fda81610fb4565b92915050565b60008060408385031215610ff757610ff6610fa5565b5b600061100585828601610fcb565b925050602061101685828601610fcb565b9150509250929050565b600073ffffffffffffffffffffffffffffffffffffffff82169050919050565b600061104b82611020565b9050919050565b61105b81611040565b811461106657600080fd5b50565b60008135905061107881611052565b92915050565b60006020828403121561109457611093610fa5565b5b60006110a284828501611069565b91505092915050565b600081519050919050565b600082825260208201905092915050565b6000819050602082019050919050565b6110e081610faa565b82525050565b6060820160008201516110fc60008501826110d7565b50602082015161110f60208501826110d7565b50604082015161112260408501826110d7565b50505050565b600061113483836110e6565b60608301905092915050565b6000602082019050919050565b6000611158826110ab565b61116281856110b6565b935061116d836110c7565b8060005b8381101561119e5781516111858882611128565b975061119083611140565b925050600181019050611171565b5085935050505092915050565b600060208201905081810360008301526111c5818461114d565b905092915050565b6111d681610faa565b82525050565b60006020820190506111f160008301846111cd565b92915050565b61120081611040565b82525050565b600060208201905061121b60008301846111f7565b92915050565b6000819050919050565b600061124661124161123c84611020565b611221565b611020565b9050919050565b60006112588261122b565b9050919050565b600061126a8261124d565b9050919050565b61127a8161125f565b82525050565b60006020820190506112956000830184611271565b92915050565b7f4d757374207265636f726420736f6d65207061796d656e740000000000000000600082015250565b60006112d1601883610ebc565b91506112dc8261129b565b602082019050919050565b60006020820190508181036000830152611300816112c4565b9050919050565b7f53656e74204156415820646f6573206e6f74206d61746368207468652073706560008201527f63696669656420616d6f756e7400000000000000000000000000000000000000602082015250565b6000611363602d83610ebc565b915061136e82611307565b604082019050919050565b6000602082019050818103600083015261139281611356565b9050919050565b7f5061796d656e742062656c6f77206d696e696d756d0000000000000000000000600082015250565b60006113cf601583610ebc565b91506113da82611399565b602082019050919050565b600060208201905081810360008301526113fe816113c2565b9050919050565b600060608201905061141a60008301866111f7565b61142760208301856111f7565b61143460408301846111cd565b949350505050565b60008115159050919050565b6114518161143c565b811461145c57600080fd5b50565b60008151905061146e81611448565b92915050565b60006020828403121561148a57611489610fa5565b5b60006114988482850161145f565b91505092915050565b7f55534454207472616e73666572206661696c6564000000000000000000000000600082015250565b60006114d7601483610ebc565b91506114e2826114a1565b602082019050919050565b60006020820190508181036000830152611506816114ca565b9050919050565b600060408201905061152260008301856111cd565b61152f60208301846111cd565b9392505050565b60008151905061154581610fb4565b92915050565b60006020828403121561156157611560610fa5565b5b600061156f84828501611536565b91505092915050565b600081905092915050565b50565b6000611593600083611578565b915061159e82611583565b600082019050919050565b60006115b482611586565b9150819050919050565b7f4661696c656420746f2073656e64204156415800000000000000000000000000600082015250565b60006115f4601383610ebc565b91506115ff826115be565b602082019050919050565b60006020820190508181036000830152611623816115e7565b9050919050565b600060408201905061163f60008301856111f7565b61164c60208301846111cd565b9392505050565b7f4d75737420776974686472617720736f6d6520616d6f756e7400000000000000600082015250565b6000611689601983610ebc565b915061169482611653565b602082019050919050565b600060208201905081810360008301526116b88161167c565b9050919050565b7f496e73756666696369656e7420415641582062616c616e636520696e20636f6e60008201527f7472616374000000000000000000000000000000000000000000000000000000602082015250565b600061171b602583610ebc565b9150611726826116bf565b604082019050919050565b6000602082019050818103600083015261174a8161170e565b9050919050565b7f496e73756666696369656e7420555344542062616c616e636520696e20636f6e60008201527f7472616374000000000000000000000000000000000000000000000000000000602082015250565b60006117ad602583610ebc565b91506117b882611751565b604082019050919050565b600060208201905081810360008301526117dc816117a0565b905091905056fea2646970667358221220be2522b8cc19313c6e15b883217c4470f7849a59a4c974a778ca62b92974134564736f6c63430008140033",
  "linkReferences": {},
  "deployedLinkReferences": {}
}