{
  "_format": "hh-sol-artifact-1",
  "contractName": "DefiBilling",
  "sourceName": "contracts/DefiBilling.sol",
  "abi": [
    {
      "inputs": [
        {
          "internalType": "address",
          "name": "_usdtTokenAddress",
          "type": "address"
        },
        {
          "internalType": "address",
          "name": "_avaxPriceFeed",
          "type": "address"
        },
        {
          "internalType": "address",
          "name": "_stakingContractAddress",
          "type": "address"
        }
      ],
      "stateMutability": "nonpayable",
      "type": "constructor"
    },
    {
      "inputs": [
        {
          "internalType": "address",
          "name": "owner",
          "type": "address"
        }
      ],
      "name": "OwnableInvalidOwner",
      "type": "error"
    },
    {
      "inputs": [
        {
          "internalType": "address",
          "name": "account",
          "type": "address"
        }
      ],
      "name": "OwnableUnauthorizedAccount",
      "type": "error"
    },
    {
      "inputs": [],
      "name": "ReentrancyGuardReentrantCall",
      "type": "error"
    },
    {
      "anonymous": false,
      "inputs": [
        {
          "indexed": true,
          "internalType": "address",
          "name": "user",
          "type": "address"
        },
        {
          "indexed": false,
          "internalType": "uint256",
          "name": "avaxAmount",
          "type": "uint256"
        },
        {
          "indexed": false,
          "internalType": "uint256",
          "name": "usdtAmount",
          "type": "uint256"
        }
      ],
      "name": "BalanceAdded",
      "type": "event"
    },
    {
      "anonymous": false,
      "inputs": [
        {
          "indexed": true,
          "internalType": "address",
          "name": "owner",
          "type": "address"
        },
        {
          "indexed": false,
          "internalType": "uint256",
          "name": "avaxAmount",
          "type": "uint256"
        },
        {
          "indexed": false,
          "internalType": "uint256",
          "name": "usdtAmount",
          "type": "uint256"
        }
      ],
      "name": "EmergencyWithdrawal",
      "type": "event"
    },
    {
      "anonymous": false,
      "inputs": [
        {
          "indexed": true,
          "internalType": "address",
          "name": "owner",
          "type": "address"
        },
        {
          "indexed": false,
          "internalType": "uint256",
          "name": "avaxAmount",
          "type": "uint256"
        },
        {
          "indexed": false,
          "internalType": "uint256",
          "name": "usdtAmount",
          "type": "uint256"
        }
      ],
      "name": "FundsWithdrawn",
      "type": "event"
    },
    {
      "anonymous": false,
      "inputs": [
        {
          "indexed": true,
          "internalType": "address",
          "name": "previousOwner",
          "type": "address"
        },
        {
          "indexed": true,
          "internalType": "address",
          "name": "newOwner",
          "type": "address"
        }
      ],
      "name": "OwnershipTransferred",
      "type": "event"
    },
    {
      "anonymous": false,
      "inputs": [
        {
          "indexed": true,
          "internalType": "address",
          "name": "user",
          "type": "address"
        },
        {
          "indexed": false,
          "internalType": "uint256",
          "name": "avaxAmount",
          "type": "uint256"
        },
        {
          "indexed": false,
          "internalType": "uint256",
          "name": "usdtAmount",
          "type": "uint256"
        }
      ],
      "name": "PaymentProcessed",
      "type": "event"
    },
    {
      "stateMutability": "nonpayable",
      "type": "fallback"
    },
    {
      "inputs": [],
      "name": "MIN_DEPOSIT_USD",
      "outputs": [
        {
          "internalType": "uint256",
          "name": "",
          "type": "uint256"
        }
      ],
      "stateMutability": "view",
      "type": "function"
    },
    {
      "inputs": [
        {
          "internalType": "uint256",
          "name": "_avaxAmount",
          "type": "uint256"
        },
        {
          "internalType": "uint256",
          "name": "_usdtAmount",
          "type": "uint256"
        }
      ],
      "name": "addBalance",
      "outputs": [],
      "stateMutability": "payable",
      "type": "function"
    },
    {
      "inputs": [
        {
          "internalType": "address",
          "name": "",
          "type": "address"
        }
      ],
      "name": "balances",
      "outputs": [
        {
          "internalType": "uint256",
          "name": "avaxBalance",
          "type": "uint256"
        },
        {
          "internalType": "uint256",
          "name": "usdtBalance",
          "type": "uint256"
        }
      ],
      "stateMutability": "view",
      "type": "function"
    },
    {
      "inputs": [
        {
          "internalType": "address",
          "name": "_user",
          "type": "address"
        }
      ],
      "name": "getPaymentHistory",
      "outputs": [
        {
          "internalType": "uint256[]",
          "name": "",
          "type": "uint256[]"
        }
      ],
      "stateMutability": "view",
      "type": "function"
    },
    {
      "inputs": [],
      "name": "owner",
      "outputs": [
        {
          "internalType": "address",
          "name": "",
          "type": "address"
        }
      ],
      "stateMutability": "view",
      "type": "function"
    },
    {
      "inputs": [
        {
          "internalType": "address[]",
          "name": "users",
          "type": "address[]"
        },
        {
          "internalType": "uint256[]",
          "name": "avaxAmounts",
          "type": "uint256[]"
        },
        {
          "internalType": "uint256[]",
          "name": "usdtAmounts",
          "type": "uint256[]"
        }
      ],
      "name": "processPayments",
      "outputs": [],
      "stateMutability": "nonpayable",
      "type": "function"
    },
    {
      "inputs": [],
      "name": "renounceOwnership",
      "outputs": [],
      "stateMutability": "nonpayable",
      "type": "function"
    },
    {
      "inputs": [
        {
          "internalType": "address",
          "name": "_stakingContractAddress",
          "type": "address"
        }
      ],
      "name": "setStakingContract",
      "outputs": [],
      "stateMutability": "nonpayable",
      "type": "function"
    },
    {
      "inputs": [],
      "name": "stakingContract",
      "outputs": [
        {
          "internalType": "contract IStakingContract",
          "name": "",
          "type": "address"
        }
      ],
      "stateMutability": "view",
      "type": "function"
    },
    {
      "inputs": [
        {
          "internalType": "address",
          "name": "newOwner",
          "type": "address"
        }
      ],
      "name": "transferOwnership",
      "outputs": [],
      "stateMutability": "nonpayable",
      "type": "function"
    },
    {
      "inputs": [],
      "name": "usdtToken",
      "outputs": [
        {
          "internalType": "contract IERC20",
          "name": "",
          "type": "address"
        }
      ],
      "stateMutability": "view",
      "type": "function"
    },
    {
      "inputs": [],
      "name": "withdrawAllFunds",
      "outputs": [],
      "stateMutability": "nonpayable",
      "type": "function"
    },
    {
      "inputs": [
        {
          "internalType": "uint256",
          "name": "_avaxAmount",
          "type": "uint256"
        },
        {
          "internalType": "uint256",
          "name": "_usdtAmount",
          "type": "uint256"
        }
      ],
      "name": "withdrawFunds",
      "outputs": [],
      "stateMutability": "nonpayable",
      "type": "function"
    },
    {
      "stateMutability": "payable",
      "type": "receive"
    }
  ],
  "bytecode": "0x60c06040523480156200001157600080fd5b5060405162002ab438038062002ab48339818101604052810190620000379190620003ff565b336001600081905550600073ffffffffffffffffffffffffffffffffffffffff168173ffffffffffffffffffffffffffffffffffffffff1603620000b55760006040517f1e4fbdf7000000000000000000000000000000000000000000000000000000008152600401620000ac91906200046c565b60405180910390fd5b620000c681620002cf60201b60201c565b50600073ffffffffffffffffffffffffffffffffffffffff168373ffffffffffffffffffffffffffffffffffffffff160362000139576040517f08c379a00000000000000000000000000000000000000000000000000000000081526004016200013090620004ea565b60405180910390fd5b600073ffffffffffffffffffffffffffffffffffffffff168273ffffffffffffffffffffffffffffffffffffffff1603620001ab576040517f08c379a0000000000000000000000000000000000000000000000000000000008152600401620001a2906200055c565b60405180910390fd5b600073ffffffffffffffffffffffffffffffffffffffff168173ffffffffffffffffffffffffffffffffffffffff16036200021d576040517f08c379a00000000000000000000000000000000000000000000000000000000081526004016200021490620005ce565b60405180910390fd5b8273ffffffffffffffffffffffffffffffffffffffff1660808173ffffffffffffffffffffffffffffffffffffffff16815250508173ffffffffffffffffffffffffffffffffffffffff1660a08173ffffffffffffffffffffffffffffffffffffffff168152505080600260006101000a81548173ffffffffffffffffffffffffffffffffffffffff021916908373ffffffffffffffffffffffffffffffffffffffff160217905550505050620005f0565b6000600160009054906101000a900473ffffffffffffffffffffffffffffffffffffffff16905081600160006101000a81548173ffffffffffffffffffffffffffffffffffffffff021916908373ffffffffffffffffffffffffffffffffffffffff1602179055508173ffffffffffffffffffffffffffffffffffffffff168173ffffffffffffffffffffffffffffffffffffffff167f8be0079c531659141344cd1fd0a4f28419497f9722a3daafe3b4186f6b6457e060405160405180910390a35050565b600080fd5b600073ffffffffffffffffffffffffffffffffffffffff82169050919050565b6000620003c7826200039a565b9050919050565b620003d981620003ba565b8114620003e557600080fd5b50565b600081519050620003f981620003ce565b92915050565b6000806000606084860312156200041b576200041a62000395565b5b60006200042b86828701620003e8565b93505060206200043e86828701620003e8565b92505060406200045186828701620003e8565b9150509250925092565b6200046681620003ba565b82525050565b60006020820190506200048360008301846200045b565b92915050565b600082825260208201905092915050565b7f496e76616c696420555344542061646472657373000000000000000000000000600082015250565b6000620004d260148362000489565b9150620004df826200049a565b602082019050919050565b600060208201905081810360008301526200050581620004c3565b9050919050565b7f496e76616c696420707269636520666565642061646472657373000000000000600082015250565b600062000544601a8362000489565b915062000551826200050c565b602082019050919050565b60006020820190508181036000830152620005778162000535565b9050919050565b7f496e76616c6964207374616b696e6720636f6e74726163742061646472657373600082015250565b6000620005b660208362000489565b9150620005c3826200057e565b602082019050919050565b60006020820190508181036000830152620005e981620005a7565b9050919050565b60805160a05161247e6200063660003960005050600081816106e10152818161084401528181610d7501528181610f73015281816110f801526111d3015261247e6000f3fe6080604052600436106100c65760003560e01c80638da5cb5b1161007f578063a98ad46c11610059578063a98ad46c146102bb578063e5253105146102e6578063ee99205c1461030f578063f2fde38b1461033a57610106565b80638da5cb5b1461024b5780639dd373b914610276578063a40398a61461029f57610106565b80631606d12a1461014e57806327e235e31461017757806349649fbf146101b5578063715018a6146101cc5780637da2ba7c146101e35780637f840e411461022057610106565b36610106576040517f08c379a00000000000000000000000000000000000000000000000000000000081526004016100fd906115bf565b60405180910390fd5b34801561011257600080fd5b506040517f08c379a00000000000000000000000000000000000000000000000000000000081526004016101459061162b565b60405180910390fd5b34801561015a57600080fd5b5061017560048036038101906101709190611710565b610363565b005b34801561018357600080fd5b5061019e60048036038101906101999190611822565b6106ac565b6040516101ac929190611868565b60405180910390f35b3480156101c157600080fd5b506101ca6106d0565b005b3480156101d857600080fd5b506101e1610982565b005b3480156101ef57600080fd5b5061020a60048036038101906102059190611822565b610996565b604051610217919061194f565b60405180910390f35b34801561022c57600080fd5b50610235610a2d565b6040516102429190611971565b60405180910390f35b34801561025757600080fd5b50610260610a35565b60405161026d919061199b565b60405180910390f35b34801561028257600080fd5b5061029d60048036038101906102989190611822565b610a5f565b005b6102b960048036038101906102b491906119e2565b610b1a565b005b3480156102c757600080fd5b506102d0610f71565b6040516102dd9190611a81565b60405180910390f35b3480156102f257600080fd5b5061030d600480360381019061030891906119e2565b610f95565b005b34801561031b57600080fd5b50610324611311565b6040516103319190611abd565b60405180910390f35b34801561034657600080fd5b50610361600480360381019061035c9190611822565b611337565b005b61036b6113bd565b838390508686905014801561038557508181905086869050145b6103c4576040517f08c379a00000000000000000000000000000000000000000000000000000000081526004016103bb90611b24565b60405180910390fd5b606486869050111561040b576040517f08c379a000000000000000000000000000000000000000000000000000000000815260040161040290611bb6565b60405180910390fd5b60005b868690508110156106a357600087878381811061042e5761042d611bd6565b5b90506020020160208101906104439190611822565b9050600086868481811061045a57610459611bd6565b5b905060200201359050600085858581811061047857610477611bd6565b5b90506020020135905081600360008573ffffffffffffffffffffffffffffffffffffffff1673ffffffffffffffffffffffffffffffffffffffff168152602001908152602001600020600001541015610506576040517f08c379a00000000000000000000000000000000000000000000000000000000081526004016104fd90611c51565b60405180910390fd5b80600360008573ffffffffffffffffffffffffffffffffffffffff1673ffffffffffffffffffffffffffffffffffffffff16815260200190815260200160002060010154101561058b576040517f08c379a000000000000000000000000000000000000000000000000000000000815260040161058290611cbd565b60405180910390fd5b81600360008573ffffffffffffffffffffffffffffffffffffffff1673ffffffffffffffffffffffffffffffffffffffff16815260200190815260200160002060000160008282546105dd9190611d0c565b9250508190555080600360008573ffffffffffffffffffffffffffffffffffffffff1673ffffffffffffffffffffffffffffffffffffffff16815260200190815260200160002060010160008282546106369190611d0c565b925050819055508273ffffffffffffffffffffffffffffffffffffffff167f7bd379b31566817ff79103ff210fc7d86fa755c249a8dc25f96618362789e1918383604051610685929190611868565b60405180910390a2505050808061069b90611d40565b91505061040e565b50505050505050565b60036020528060005260406000206000915090508060000154908060010154905082565b6106d86113bd565b600047905060007f000000000000000000000000000000000000000000000000000000000000000073ffffffffffffffffffffffffffffffffffffffff166370a08231306040518263ffffffff1660e01b8152600401610738919061199b565b602060405180830381865afa158015610755573d6000803e3d6000fd5b505050506040513d601f19601f820116820180604052508101906107799190611d9d565b9050600082111561083957600061078e610a35565b73ffffffffffffffffffffffffffffffffffffffff16836040516107b190611dfb565b60006040518083038185875af1925050503d80600081146107ee576040519150601f19603f3d011682016040523d82523d6000602084013e6107f3565b606091505b5050905080610837576040517f08c379a000000000000000000000000000000000000000000000000000000000815260040161082e90611e5c565b60405180910390fd5b505b6000811115610927577f000000000000000000000000000000000000000000000000000000000000000073ffffffffffffffffffffffffffffffffffffffff1663a9059cbb610886610a35565b836040518363ffffffff1660e01b81526004016108a4929190611e7c565b6020604051808303816000875af11580156108c3573d6000803e3d6000fd5b505050506040513d601f19601f820116820180604052508101906108e79190611edd565b610926576040517f08c379a000000000000000000000000000000000000000000000000000000000815260040161091d90611f56565b60405180910390fd5b5b61092f610a35565b73ffffffffffffffffffffffffffffffffffffffff167f56da9a5ae0bcf6e7c3fdd78a10550e7d0458de1c39bfb7f6e96a3e92dd344a688383604051610976929190611868565b60405180910390a25050565b61098a6113bd565b6109946000611444565b565b6060600460008373ffffffffffffffffffffffffffffffffffffffff1673ffffffffffffffffffffffffffffffffffffffff168152602001908152602001600020805480602002602001604051908101604052809291908181526020018280548015610a2157602002820191906000526020600020905b815481526020019060010190808311610a0d575b50505050509050919050565b6301312d0081565b6000600160009054906101000a900473ffffffffffffffffffffffffffffffffffffffff16905090565b610a676113bd565b600073ffffffffffffffffffffffffffffffffffffffff168173ffffffffffffffffffffffffffffffffffffffff1603610ad6576040517f08c379a0000000000000000000000000000000000000000000000000000000008152600401610acd90611fc2565b60405180910390fd5b80600260006101000a81548173ffffffffffffffffffffffffffffffffffffffff021916908373ffffffffffffffffffffffffffffffffffffffff16021790555050565b610b2261150a565b6000806000600260009054906101000a900473ffffffffffffffffffffffffffffffffffffffff1673ffffffffffffffffffffffffffffffffffffffff166316934fc4336040518263ffffffff1660e01b8152600401610b82919061199b565b606060405180830381865afa158015610b9f573d6000803e3d6000fd5b505050506040513d601f19601f82011682018060405250810190610bc39190611fe2565b925092509250600083118015610bf157506201518081610be39190612035565b82610bee9190612077565b42105b610c30576040517f08c379a0000000000000000000000000000000000000000000000000000000008152600401610c27906120f7565b60405180910390fd5b6000851180610c3f5750600084115b610c7e576040517f08c379a0000000000000000000000000000000000000000000000000000000008152600401610c7590612163565b60405180910390fd5b6000851115610d2357843414610cc9576040517f08c379a0000000000000000000000000000000000000000000000000000000008152600401610cc0906121f5565b60405180910390fd5b84600360003373ffffffffffffffffffffffffffffffffffffffff1673ffffffffffffffffffffffffffffffffffffffff1681526020019081526020016000206000016000828254610d1b9190612077565b925050819055505b6000841115610eac576301312d00841015610d73576040517f08c379a0000000000000000000000000000000000000000000000000000000008152600401610d6a90612261565b60405180910390fd5b7f000000000000000000000000000000000000000000000000000000000000000073ffffffffffffffffffffffffffffffffffffffff166323b872dd3330876040518463ffffffff1660e01b8152600401610dd093929190612281565b6020604051808303816000875af1158015610def573d6000803e3d6000fd5b505050506040513d601f19601f82011682018060405250810190610e139190611edd565b610e52576040517f08c379a0000000000000000000000000000000000000000000000000000000008152600401610e4990611f56565b60405180910390fd5b83600360003373ffffffffffffffffffffffffffffffffffffffff1673ffffffffffffffffffffffffffffffffffffffff1681526020019081526020016000206001016000828254610ea49190612077565b925050819055505b600460003373ffffffffffffffffffffffffffffffffffffffff1673ffffffffffffffffffffffffffffffffffffffff1681526020019081526020016000204290806001815401808255809150506001900390600052602060002001600090919091909150553373ffffffffffffffffffffffffffffffffffffffff167fb124cda59cfa7e129031f0c9c10f49f8db592ab01df1bc49383dfb98761e15cc8686604051610f5a929190611868565b60405180910390a2505050610f6d611550565b5050565b7f000000000000000000000000000000000000000000000000000000000000000081565b610f9d6113bd565b6000821180610fac5750600081115b610feb576040517f08c379a0000000000000000000000000000000000000000000000000000000008152600401610fe290612304565b60405180910390fd5b60008211156110ec5781471015611037576040517f08c379a000000000000000000000000000000000000000000000000000000000815260040161102e90612396565b60405180910390fd5b6000611041610a35565b73ffffffffffffffffffffffffffffffffffffffff168360405161106490611dfb565b60006040518083038185875af1925050503d80600081146110a1576040519150601f19603f3d011682016040523d82523d6000602084013e6110a6565b606091505b50509050806110ea576040517f08c379a00000000000000000000000000000000000000000000000000000000081526004016110e190611e5c565b60405180910390fd5b505b60008111156112b657807f000000000000000000000000000000000000000000000000000000000000000073ffffffffffffffffffffffffffffffffffffffff166370a08231306040518263ffffffff1660e01b815260040161114f919061199b565b602060405180830381865afa15801561116c573d6000803e3d6000fd5b505050506040513d601f19601f820116820180604052508101906111909190611d9d565b10156111d1576040517f08c379a00000000000000000000000000000000000000000000000000000000081526004016111c890612428565b60405180910390fd5b7f000000000000000000000000000000000000000000000000000000000000000073ffffffffffffffffffffffffffffffffffffffff1663a9059cbb611215610a35565b836040518363ffffffff1660e01b8152600401611233929190611e7c565b6020604051808303816000875af1158015611252573d6000803e3d6000fd5b505050506040513d601f19601f820116820180604052508101906112769190611edd565b6112b5576040517f08c379a00000000000000000000000000000000000000000000000000000000081526004016112ac90611f56565b60405180910390fd5b5b6112be610a35565b73ffffffffffffffffffffffffffffffffffffffff167ffbc3a599b784fe88772fc5abcc07223f64ca0b13acc341f4fb1e46bef0510eb48383604051611305929190611868565b60405180910390a25050565b600260009054906101000a900473ffffffffffffffffffffffffffffffffffffffff1681565b61133f6113bd565b600073ffffffffffffffffffffffffffffffffffffffff168173ffffffffffffffffffffffffffffffffffffffff16036113b15760006040517f1e4fbdf70000000000000000000000000000000000000000000000000000000081526004016113a8919061199b565b60405180910390fd5b6113ba81611444565b50565b6113c561155a565b73ffffffffffffffffffffffffffffffffffffffff166113e3610a35565b73ffffffffffffffffffffffffffffffffffffffff16146114425761140661155a565b6040517f118cdaa7000000000000000000000000000000000000000000000000000000008152600401611439919061199b565b60405180910390fd5b565b6000600160009054906101000a900473ffffffffffffffffffffffffffffffffffffffff16905081600160006101000a81548173ffffffffffffffffffffffffffffffffffffffff021916908373ffffffffffffffffffffffffffffffffffffffff1602179055508173ffffffffffffffffffffffffffffffffffffffff168173ffffffffffffffffffffffffffffffffffffffff167f8be0079c531659141344cd1fd0a4f28419497f9722a3daafe3b4186f6b6457e060405160405180910390a35050565b600260005403611546576040517f3ee5aeb500000000000000000000000000000000000000000000000000000000815260040160405180910390fd5b6002600081905550565b6001600081905550565b600033905090565b600082825260208201905092915050565b7f446972656374206465706f7369747320617265206e6f7420616c6c6f77656400600082015250565b60006115a9601f83611562565b91506115b482611573565b602082019050919050565b600060208201905081810360008301526115d88161159c565b9050919050565b7f46756e6374696f6e20646f6573206e6f74206578697374000000000000000000600082015250565b6000611615601783611562565b9150611620826115df565b602082019050919050565b6000602082019050818103600083015261164481611608565b9050919050565b600080fd5b600080fd5b600080fd5b600080fd5b600080fd5b60008083601f84011261167a57611679611655565b5b8235905067ffffffffffffffff8111156116975761169661165a565b5b6020830191508360208202830111156116b3576116b261165f565b5b9250929050565b60008083601f8401126116d0576116cf611655565b5b8235905067ffffffffffffffff8111156116ed576116ec61165a565b5b6020830191508360208202830111156117095761170861165f565b5b9250929050565b6000806000806000806060878903121561172d5761172c61164b565b5b600087013567ffffffffffffffff81111561174b5761174a611650565b5b61175789828a01611664565b9650965050602087013567ffffffffffffffff81111561177a57611779611650565b5b61178689828a016116ba565b9450945050604087013567ffffffffffffffff8111156117a9576117a8611650565b5b6117b589828a016116ba565b92509250509295509295509295565b600073ffffffffffffffffffffffffffffffffffffffff82169050919050565b60006117ef826117c4565b9050919050565b6117ff816117e4565b811461180a57600080fd5b50565b60008135905061181c816117f6565b92915050565b6000602082840312156118385761183761164b565b5b60006118468482850161180d565b91505092915050565b6000819050919050565b6118628161184f565b82525050565b600060408201905061187d6000830185611859565b61188a6020830184611859565b9392505050565b600081519050919050565b600082825260208201905092915050565b6000819050602082019050919050565b6118c68161184f565b82525050565b60006118d883836118bd565b60208301905092915050565b6000602082019050919050565b60006118fc82611891565b611906818561189c565b9350611911836118ad565b8060005b8381101561194257815161192988826118cc565b9750611934836118e4565b925050600181019050611915565b5085935050505092915050565b6000602082019050818103600083015261196981846118f1565b905092915050565b60006020820190506119866000830184611859565b92915050565b611995816117e4565b82525050565b60006020820190506119b0600083018461198c565b92915050565b6119bf8161184f565b81146119ca57600080fd5b50565b6000813590506119dc816119b6565b92915050565b600080604083850312156119f9576119f861164b565b5b6000611a07858286016119cd565b9250506020611a18858286016119cd565b9150509250929050565b6000819050919050565b6000611a47611a42611a3d846117c4565b611a22565b6117c4565b9050919050565b6000611a5982611a2c565b9050919050565b6000611a6b82611a4e565b9050919050565b611a7b81611a60565b82525050565b6000602082019050611a966000830184611a72565b92915050565b6000611aa782611a4e565b9050919050565b611ab781611a9c565b82525050565b6000602082019050611ad26000830184611aae565b92915050565b7f4d69736d61746368656420696e70757420617272617973000000000000000000600082015250565b6000611b0e601783611562565b9150611b1982611ad8565b602082019050919050565b60006020820190508181036000830152611b3d81611b01565b9050919050565b7f546f6f206d616e7920757365727320696e20612073696e676c65207472616e7360008201527f616374696f6e0000000000000000000000000000000000000000000000000000602082015250565b6000611ba0602683611562565b9150611bab82611b44565b604082019050919050565b60006020820190508181036000830152611bcf81611b93565b9050919050565b7f4e487b7100000000000000000000000000000000000000000000000000000000600052603260045260246000fd5b7f496e73756666696369656e7420415641582062616c616e636500000000000000600082015250565b6000611c3b601983611562565b9150611c4682611c05565b602082019050919050565b60006020820190508181036000830152611c6a81611c2e565b9050919050565b7f496e73756666696369656e7420555344542062616c616e636500000000000000600082015250565b6000611ca7601983611562565b9150611cb282611c71565b602082019050919050565b60006020820190508181036000830152611cd681611c9a565b9050919050565b7f4e487b7100000000000000000000000000000000000000000000000000000000600052601160045260246000fd5b6000611d178261184f565b9150611d228361184f565b9250828203905081811115611d3a57611d39611cdd565b5b92915050565b6000611d4b8261184f565b91507fffffffffffffffffffffffffffffffffffffffffffffffffffffffffffffffff8203611d7d57611d7c611cdd565b5b600182019050919050565b600081519050611d97816119b6565b92915050565b600060208284031215611db357611db261164b565b5b6000611dc184828501611d88565b91505092915050565b600081905092915050565b50565b6000611de5600083611dca565b9150611df082611dd5565b600082019050919050565b6000611e0682611dd8565b9150819050919050565b7f4661696c656420746f2073656e64204156415800000000000000000000000000600082015250565b6000611e46601383611562565b9150611e5182611e10565b602082019050919050565b60006020820190508181036000830152611e7581611e39565b9050919050565b6000604082019050611e91600083018561198c565b611e9e6020830184611859565b9392505050565b60008115159050919050565b611eba81611ea5565b8114611ec557600080fd5b50565b600081519050611ed781611eb1565b92915050565b600060208284031215611ef357611ef261164b565b5b6000611f0184828501611ec8565b91505092915050565b7f55534454207472616e73666572206661696c6564000000000000000000000000600082015250565b6000611f40601483611562565b9150611f4b82611f0a565b602082019050919050565b60006020820190508181036000830152611f6f81611f33565b9050919050565b7f496e76616c6964207374616b696e6720636f6e74726163742061646472657373600082015250565b6000611fac602083611562565b9150611fb782611f76565b602082019050919050565b60006020820190508181036000830152611fdb81611f9f565b9050919050565b600080600060608486031215611ffb57611ffa61164b565b5b600061200986828701611d88565b935050602061201a86828701611d88565b925050604061202b86828701611d88565b9150509250925092565b60006120408261184f565b915061204b8361184f565b92508282026120598161184f565b915082820484148315176120705761206f611cdd565b5b5092915050565b60006120828261184f565b915061208d8361184f565b92508282019050808211156120a5576120a4611cdd565b5b92915050565b7f4e6f20616374697665207374616b650000000000000000000000000000000000600082015250565b60006120e1600f83611562565b91506120ec826120ab565b602082019050919050565b60006020820190508181036000830152612110816120d4565b9050919050565b7f4d7573742061646420736f6d652062616c616e63650000000000000000000000600082015250565b600061214d601583611562565b915061215882612117565b602082019050919050565b6000602082019050818103600083015261217c81612140565b9050919050565b7f53656e74204156415820646f6573206e6f74206d61746368207468652073706560008201527f63696669656420616d6f756e7400000000000000000000000000000000000000602082015250565b60006121df602d83611562565b91506121ea82612183565b604082019050919050565b6000602082019050818103600083015261220e816121d2565b9050919050565b7f4465706f7369742062656c6f77206d696e696d756d0000000000000000000000600082015250565b600061224b601583611562565b915061225682612215565b602082019050919050565b6000602082019050818103600083015261227a8161223e565b9050919050565b6000606082019050612296600083018661198c565b6122a3602083018561198c565b6122b06040830184611859565b949350505050565b7f4d75737420776974686472617720736f6d6520616d6f756e7400000000000000600082015250565b60006122ee601983611562565b91506122f9826122b8565b602082019050919050565b6000602082019050818103600083015261231d816122e1565b9050919050565b7f496e73756666696369656e7420415641582062616c616e636520696e20636f6e60008201527f7472616374000000000000000000000000000000000000000000000000000000602082015250565b6000612380602583611562565b915061238b82612324565b604082019050919050565b600060208201905081810360008301526123af81612373565b9050919050565b7f496e73756666696369656e7420555344542062616c616e636520696e20636f6e60008201527f7472616374000000000000000000000000000000000000000000000000000000602082015250565b6000612412602583611562565b915061241d826123b6565b604082019050919050565b6000602082019050818103600083015261244181612405565b905091905056fea2646970667358221220b72f4cd583e129111d5842c24fb960fcbb516039bc4d9c7a69dd4af550f85c8964736f6c63430008140033",
  "linkReferences": {},
  "deployedLinkReferences": {}
}