{
  "_format": "hh-sol-artifact-1",
  "contractName": "DefiBillingV3",
  "sourceName": "contracts/DefiBillingV2.sol",
  "abi": [
    {
      "inputs": [
        {
          "internalType": "address",
          "name": "_usdtTokenAddress",
          "type": "address"
        },
        {
          "internalType": "address",
          "name": "_avaxPriceFeed",
          "type": "address"
        }
      ],
      "stateMutability": "nonpayable",
      "type": "constructor"
    },
    {
      "inputs": [
        {
          "internalType": "address",
          "name": "owner",
          "type": "address"
        }
      ],
      "name": "OwnableInvalidOwner",
      "type": "error"
    },
    {
      "inputs": [
        {
          "internalType": "address",
          "name": "account",
          "type": "address"
        }
      ],
      "name": "OwnableUnauthorizedAccount",
      "type": "error"
    },
    {
      "inputs": [],
      "name": "ReentrancyGuardReentrantCall",
      "type": "error"
    },
    {
      "anonymous": false,
      "inputs": [
        {
          "indexed": true,
          "internalType": "address",
          "name": "owner",
          "type": "address"
        },
        {
          "indexed": false,
          "internalType": "uint256",
          "name": "avaxAmount",
          "type": "uint256"
        },
        {
          "indexed": false,
          "internalType": "uint256",
          "name": "usdtAmount",
          "type": "uint256"
        }
      ],
      "name": "FundsWithdrawn",
      "type": "event"
    },
    {
      "anonymous": false,
      "inputs": [
        {
          "indexed": false,
          "internalType": "uint256",
          "name": "newAmount",
          "type": "uint256"
        }
      ],
      "name": "MinDepositUsdChanged",
      "type": "event"
    },
    {
      "anonymous": false,
      "inputs": [
        {
          "indexed": true,
          "internalType": "address",
          "name": "previousOwner",
          "type": "address"
        },
        {
          "indexed": true,
          "internalType": "address",
          "name": "newOwner",
          "type": "address"
        }
      ],
      "name": "OwnershipTransferred",
      "type": "event"
    },
    {
      "anonymous": false,
      "inputs": [
        {
          "indexed": true,
          "internalType": "address",
          "name": "user",
          "type": "address"
        },
        {
          "indexed": false,
          "internalType": "uint256",
          "name": "avaxAmount",
          "type": "uint256"
        },
        {
          "indexed": false,
          "internalType": "uint256",
          "name": "usdtAmount",
          "type": "uint256"
        }
      ],
      "name": "PaymentRecorded",
      "type": "event"
    },
    {
      "stateMutability": "nonpayable",
      "type": "fallback"
    },
    {
      "inputs": [
        {
          "internalType": "address",
          "name": "_user",
          "type": "address"
        }
      ],
      "name": "getPaymentHistory",
      "outputs": [
        {
          "components": [
            {
              "internalType": "uint256",
              "name": "timestamp",
              "type": "uint256"
            },
            {
              "internalType": "uint256",
              "name": "avaxAmount",
              "type": "uint256"
            },
            {
              "internalType": "uint256",
              "name": "usdtAmount",
              "type": "uint256"
            }
          ],
          "internalType": "struct DefiBillingV3.Payment[]",
          "name": "",
          "type": "tuple[]"
        }
      ],
      "stateMutability": "view",
      "type": "function"
    },
    {
      "inputs": [],
      "name": "minDepositUsd",
      "outputs": [
        {
          "internalType": "uint256",
          "name": "",
          "type": "uint256"
        }
      ],
      "stateMutability": "view",
      "type": "function"
    },
    {
      "inputs": [],
      "name": "owner",
      "outputs": [
        {
          "internalType": "address",
          "name": "",
          "type": "address"
        }
      ],
      "stateMutability": "view",
      "type": "function"
    },
    {
      "inputs": [
        {
          "internalType": "uint256",
          "name": "_avaxAmount",
          "type": "uint256"
        },
        {
          "internalType": "uint256",
          "name": "_usdtAmount",
          "type": "uint256"
        }
      ],
      "name": "recordPayment",
      "outputs": [],
      "stateMutability": "payable",
      "type": "function"
    },
    {
      "inputs": [],
      "name": "renounceOwnership",
      "outputs": [],
      "stateMutability": "nonpayable",
      "type": "function"
    },
    {
      "inputs": [
        {
          "internalType": "uint256",
          "name": "_newMinDepositUSD",
          "type": "uint256"
        }
      ],
      "name": "setMinDepositUSD",
      "outputs": [],
      "stateMutability": "nonpayable",
      "type": "function"
    },
    {
      "inputs": [
        {
          "internalType": "address",
          "name": "newOwner",
          "type": "address"
        }
      ],
      "name": "transferOwnership",
      "outputs": [],
      "stateMutability": "nonpayable",
      "type": "function"
    },
    {
      "inputs": [],
      "name": "usdtToken",
      "outputs": [
        {
          "internalType": "contract IERC20",
          "name": "",
          "type": "address"
        }
      ],
      "stateMutability": "view",
      "type": "function"
    },
    {
      "inputs": [],
      "name": "withdrawAllFunds",
      "outputs": [],
      "stateMutability": "nonpayable",
      "type": "function"
    },
    {
      "inputs": [
        {
          "internalType": "uint256",
          "name": "_avaxAmount",
          "type": "uint256"
        },
        {
          "internalType": "uint256",
          "name": "_usdtAmount",
          "type": "uint256"
        }
      ],
      "name": "withdrawFunds",
      "outputs": [],
      "stateMutability": "nonpayable",
      "type": "function"
    },
    {
      "stateMutability": "payable",
      "type": "receive"
    }
  ],
  "bytecode": "0x60c060405262a7d8c06003553480156200001857600080fd5b5060405162001e9638038062001e9683398181016040528101906200003e919062000352565b336001600081905550600073ffffffffffffffffffffffffffffffffffffffff168173ffffffffffffffffffffffffffffffffffffffff1603620000bc5760006040517f1e4fbdf7000000000000000000000000000000000000000000000000000000008152600401620000b39190620003aa565b60405180910390fd5b620000cd816200022260201b60201c565b50600073ffffffffffffffffffffffffffffffffffffffff168273ffffffffffffffffffffffffffffffffffffffff160362000140576040517f08c379a0000000000000000000000000000000000000000000000000000000008152600401620001379062000428565b60405180910390fd5b600073ffffffffffffffffffffffffffffffffffffffff168173ffffffffffffffffffffffffffffffffffffffff1603620001b2576040517f08c379a0000000000000000000000000000000000000000000000000000000008152600401620001a9906200049a565b60405180910390fd5b8173ffffffffffffffffffffffffffffffffffffffff1660808173ffffffffffffffffffffffffffffffffffffffff16815250508073ffffffffffffffffffffffffffffffffffffffff1660a08173ffffffffffffffffffffffffffffffffffffffff16815250505050620004bc565b6000600160009054906101000a900473ffffffffffffffffffffffffffffffffffffffff16905081600160006101000a81548173ffffffffffffffffffffffffffffffffffffffff021916908373ffffffffffffffffffffffffffffffffffffffff1602179055508173ffffffffffffffffffffffffffffffffffffffff168173ffffffffffffffffffffffffffffffffffffffff167f8be0079c531659141344cd1fd0a4f28419497f9722a3daafe3b4186f6b6457e060405160405180910390a35050565b600080fd5b600073ffffffffffffffffffffffffffffffffffffffff82169050919050565b60006200031a82620002ed565b9050919050565b6200032c816200030d565b81146200033857600080fd5b50565b6000815190506200034c8162000321565b92915050565b600080604083850312156200036c576200036b620002e8565b5b60006200037c858286016200033b565b92505060206200038f858286016200033b565b9150509250929050565b620003a4816200030d565b82525050565b6000602082019050620003c1600083018462000399565b92915050565b600082825260208201905092915050565b7f496e76616c696420555344542061646472657373000000000000000000000000600082015250565b600062000410601483620003c7565b91506200041d82620003d8565b602082019050919050565b60006020820190508181036000830152620004438162000401565b9050919050565b7f496e76616c696420707269636520666565642061646472657373000000000000600082015250565b600062000482601a83620003c7565b91506200048f826200044a565b602082019050919050565b60006020820190508181036000830152620004b58162000473565b9050919050565b60805160a05161199462000502600039600050506000818161039201528181610586015281816106e90152818161092301528181610aa80152610b8301526119946000f3fe6080604052600436106100955760003560e01c80638da5cb5b116100595780638da5cb5b146101cf578063a98ad46c146101fa578063e525310514610225578063eb7218fa1461024e578063f2fde38b14610277576100d5565b80630b879bc21461011d5780631a6e65861461013957806349649fbf14610164578063715018a61461017b5780637da2ba7c14610192576100d5565b366100d5576040517f08c379a00000000000000000000000000000000000000000000000000000000081526004016100cc90610fd5565b60405180910390fd5b3480156100e157600080fd5b506040517f08c379a000000000000000000000000000000000000000000000000000000000815260040161011490611041565b60405180910390fd5b6101376004803603810190610132919061109c565b6102a0565b005b34801561014557600080fd5b5061014e61056f565b60405161015b91906110eb565b60405180910390f35b34801561017057600080fd5b50610179610575565b005b34801561018757600080fd5b50610190610827565b005b34801561019e57600080fd5b506101b960048036038101906101b49190611164565b61083b565b6040516101c69190611291565b60405180910390f35b3480156101db57600080fd5b506101e46108f7565b6040516101f191906112c2565b60405180910390f35b34801561020657600080fd5b5061020f610921565b60405161021c919061133c565b60405180910390f35b34801561023157600080fd5b5061024c6004803603810190610247919061109c565b610945565b005b34801561025a57600080fd5b5061027560048036038101906102709190611357565b610cc1565b005b34801561028357600080fd5b5061029e60048036038101906102999190611164565b610d4d565b005b6102a8610dd3565b60008211806102b75750600081115b6102f6576040517f08c379a00000000000000000000000000000000000000000000000000000000081526004016102ed906113d0565b60405180910390fd5b600082111561034257813414610341576040517f08c379a000000000000000000000000000000000000000000000000000000000815260040161033890611462565b60405180910390fd5b5b600081111561047057600354811015610390576040517f08c379a0000000000000000000000000000000000000000000000000000000008152600401610387906114ce565b60405180910390fd5b7f000000000000000000000000000000000000000000000000000000000000000073ffffffffffffffffffffffffffffffffffffffff166323b872dd3330846040518463ffffffff1660e01b81526004016103ed939291906114ee565b6020604051808303816000875af115801561040c573d6000803e3d6000fd5b505050506040513d601f19601f82011682018060405250810190610430919061155d565b61046f576040517f08c379a0000000000000000000000000000000000000000000000000000000008152600401610466906115d6565b60405180910390fd5b5b600260003373ffffffffffffffffffffffffffffffffffffffff1673ffffffffffffffffffffffffffffffffffffffff168152602001908152602001600020604051806060016040528042815260200184815260200183815250908060018154018082558091505060019003906000526020600020906003020160009091909190915060008201518160000155602082015181600101556040820151816002015550503373ffffffffffffffffffffffffffffffffffffffff167fc2031f9d5046cf95ac0999bee4c7ffa7d3f21c2182851082f80916894d25d057838360405161055b9291906115f6565b60405180910390a261056b610e19565b5050565b60035481565b61057d610e23565b600047905060007f000000000000000000000000000000000000000000000000000000000000000073ffffffffffffffffffffffffffffffffffffffff166370a08231306040518263ffffffff1660e01b81526004016105dd91906112c2565b602060405180830381865afa1580156105fa573d6000803e3d6000fd5b505050506040513d601f19601f8201168201806040525081019061061e9190611634565b905060008211156106de5760006106336108f7565b73ffffffffffffffffffffffffffffffffffffffff168360405161065690611692565b60006040518083038185875af1925050503d8060008114610693576040519150601f19603f3d011682016040523d82523d6000602084013e610698565b606091505b50509050806106dc576040517f08c379a00000000000000000000000000000000000000000000000000000000081526004016106d3906116f3565b60405180910390fd5b505b60008111156107cc577f000000000000000000000000000000000000000000000000000000000000000073ffffffffffffffffffffffffffffffffffffffff1663a9059cbb61072b6108f7565b836040518363ffffffff1660e01b8152600401610749929190611713565b6020604051808303816000875af1158015610768573d6000803e3d6000fd5b505050506040513d601f19601f8201168201806040525081019061078c919061155d565b6107cb576040517f08c379a00000000000000000000000000000000000000000000000000000000081526004016107c2906115d6565b60405180910390fd5b5b6107d46108f7565b73ffffffffffffffffffffffffffffffffffffffff167ffbc3a599b784fe88772fc5abcc07223f64ca0b13acc341f4fb1e46bef0510eb4838360405161081b9291906115f6565b60405180910390a25050565b61082f610e23565b6108396000610eaa565b565b6060600260008373ffffffffffffffffffffffffffffffffffffffff1673ffffffffffffffffffffffffffffffffffffffff168152602001908152602001600020805480602002602001604051908101604052809291908181526020016000905b828210156108ec578382906000526020600020906003020160405180606001604052908160008201548152602001600182015481526020016002820154815250508152602001906001019061089c565b505050509050919050565b6000600160009054906101000a900473ffffffffffffffffffffffffffffffffffffffff16905090565b7f000000000000000000000000000000000000000000000000000000000000000081565b61094d610e23565b600082118061095c5750600081115b61099b576040517f08c379a000000000000000000000000000000000000000000000000000000000815260040161099290611788565b60405180910390fd5b6000821115610a9c57814710156109e7576040517f08c379a00000000000000000000000000000000000000000000000000000000081526004016109de9061181a565b60405180910390fd5b60006109f16108f7565b73ffffffffffffffffffffffffffffffffffffffff1683604051610a1490611692565b60006040518083038185875af1925050503d8060008114610a51576040519150601f19603f3d011682016040523d82523d6000602084013e610a56565b606091505b5050905080610a9a576040517f08c379a0000000000000000000000000000000000000000000000000000000008152600401610a91906116f3565b60405180910390fd5b505b6000811115610c6657807f000000000000000000000000000000000000000000000000000000000000000073ffffffffffffffffffffffffffffffffffffffff166370a08231306040518263ffffffff1660e01b8152600401610aff91906112c2565b602060405180830381865afa158015610b1c573d6000803e3d6000fd5b505050506040513d601f19601f82011682018060405250810190610b409190611634565b1015610b81576040517f08c379a0000000000000000000000000000000000000000000000000000000008152600401610b78906118ac565b60405180910390fd5b7f000000000000000000000000000000000000000000000000000000000000000073ffffffffffffffffffffffffffffffffffffffff1663a9059cbb610bc56108f7565b836040518363ffffffff1660e01b8152600401610be3929190611713565b6020604051808303816000875af1158015610c02573d6000803e3d6000fd5b505050506040513d601f19601f82011682018060405250810190610c26919061155d565b610c65576040517f08c379a0000000000000000000000000000000000000000000000000000000008152600401610c5c906115d6565b60405180910390fd5b5b610c6e6108f7565b73ffffffffffffffffffffffffffffffffffffffff167ffbc3a599b784fe88772fc5abcc07223f64ca0b13acc341f4fb1e46bef0510eb48383604051610cb59291906115f6565b60405180910390a25050565b610cc9610e23565b60008111610d0c576040517f08c379a0000000000000000000000000000000000000000000000000000000008152600401610d039061193e565b60405180910390fd5b806003819055507fb4d3979a3f69e7fc0625cfe6e6977798d79051f237c0092a71a13a05a310ee2381604051610d4291906110eb565b60405180910390a150565b610d55610e23565b600073ffffffffffffffffffffffffffffffffffffffff168173ffffffffffffffffffffffffffffffffffffffff1603610dc75760006040517f1e4fbdf7000000000000000000000000000000000000000000000000000000008152600401610dbe91906112c2565b60405180910390fd5b610dd081610eaa565b50565b600260005403610e0f576040517f3ee5aeb500000000000000000000000000000000000000000000000000000000815260040160405180910390fd5b6002600081905550565b6001600081905550565b610e2b610f70565b73ffffffffffffffffffffffffffffffffffffffff16610e496108f7565b73ffffffffffffffffffffffffffffffffffffffff1614610ea857610e6c610f70565b6040517f118cdaa7000000000000000000000000000000000000000000000000000000008152600401610e9f91906112c2565b60405180910390fd5b565b6000600160009054906101000a900473ffffffffffffffffffffffffffffffffffffffff16905081600160006101000a81548173ffffffffffffffffffffffffffffffffffffffff021916908373ffffffffffffffffffffffffffffffffffffffff1602179055508173ffffffffffffffffffffffffffffffffffffffff168173ffffffffffffffffffffffffffffffffffffffff167f8be0079c531659141344cd1fd0a4f28419497f9722a3daafe3b4186f6b6457e060405160405180910390a35050565b600033905090565b600082825260208201905092915050565b7f446972656374206465706f7369747320617265206e6f7420616c6c6f77656400600082015250565b6000610fbf601f83610f78565b9150610fca82610f89565b602082019050919050565b60006020820190508181036000830152610fee81610fb2565b9050919050565b7f46756e6374696f6e20646f6573206e6f74206578697374000000000000000000600082015250565b600061102b601783610f78565b915061103682610ff5565b602082019050919050565b6000602082019050818103600083015261105a8161101e565b9050919050565b600080fd5b6000819050919050565b61107981611066565b811461108457600080fd5b50565b60008135905061109681611070565b92915050565b600080604083850312156110b3576110b2611061565b5b60006110c185828601611087565b92505060206110d285828601611087565b9150509250929050565b6110e581611066565b82525050565b600060208201905061110060008301846110dc565b92915050565b600073ffffffffffffffffffffffffffffffffffffffff82169050919050565b600061113182611106565b9050919050565b61114181611126565b811461114c57600080fd5b50565b60008135905061115e81611138565b92915050565b60006020828403121561117a57611179611061565b5b60006111888482850161114f565b91505092915050565b600081519050919050565b600082825260208201905092915050565b6000819050602082019050919050565b6111c681611066565b82525050565b6060820160008201516111e260008501826111bd565b5060208201516111f560208501826111bd565b50604082015161120860408501826111bd565b50505050565b600061121a83836111cc565b60608301905092915050565b6000602082019050919050565b600061123e82611191565b611248818561119c565b9350611253836111ad565b8060005b8381101561128457815161126b888261120e565b975061127683611226565b925050600181019050611257565b5085935050505092915050565b600060208201905081810360008301526112ab8184611233565b905092915050565b6112bc81611126565b82525050565b60006020820190506112d760008301846112b3565b92915050565b6000819050919050565b60006113026112fd6112f884611106565b6112dd565b611106565b9050919050565b6000611314826112e7565b9050919050565b600061132682611309565b9050919050565b6113368161131b565b82525050565b6000602082019050611351600083018461132d565b92915050565b60006020828403121561136d5761136c611061565b5b600061137b84828501611087565b91505092915050565b7f4d757374207265636f726420736f6d65207061796d656e740000000000000000600082015250565b60006113ba601883610f78565b91506113c582611384565b602082019050919050565b600060208201905081810360008301526113e9816113ad565b9050919050565b7f53656e74204156415820646f6573206e6f74206d61746368207468652073706560008201527f63696669656420616d6f756e7400000000000000000000000000000000000000602082015250565b600061144c602d83610f78565b9150611457826113f0565b604082019050919050565b6000602082019050818103600083015261147b8161143f565b9050919050565b7f5061796d656e742062656c6f77206d696e696d756d0000000000000000000000600082015250565b60006114b8601583610f78565b91506114c382611482565b602082019050919050565b600060208201905081810360008301526114e7816114ab565b9050919050565b600060608201905061150360008301866112b3565b61151060208301856112b3565b61151d60408301846110dc565b949350505050565b60008115159050919050565b61153a81611525565b811461154557600080fd5b50565b60008151905061155781611531565b92915050565b60006020828403121561157357611572611061565b5b600061158184828501611548565b91505092915050565b7f55534454207472616e73666572206661696c6564000000000000000000000000600082015250565b60006115c0601483610f78565b91506115cb8261158a565b602082019050919050565b600060208201905081810360008301526115ef816115b3565b9050919050565b600060408201905061160b60008301856110dc565b61161860208301846110dc565b9392505050565b60008151905061162e81611070565b92915050565b60006020828403121561164a57611649611061565b5b60006116588482850161161f565b91505092915050565b600081905092915050565b50565b600061167c600083611661565b91506116878261166c565b600082019050919050565b600061169d8261166f565b9150819050919050565b7f4661696c656420746f2073656e64204156415800000000000000000000000000600082015250565b60006116dd601383610f78565b91506116e8826116a7565b602082019050919050565b6000602082019050818103600083015261170c816116d0565b9050919050565b600060408201905061172860008301856112b3565b61173560208301846110dc565b9392505050565b7f4d75737420776974686472617720736f6d6520616d6f756e7400000000000000600082015250565b6000611772601983610f78565b915061177d8261173c565b602082019050919050565b600060208201905081810360008301526117a181611765565b9050919050565b7f496e73756666696369656e7420415641582062616c616e636520696e20636f6e60008201527f7472616374000000000000000000000000000000000000000000000000000000602082015250565b6000611804602583610f78565b915061180f826117a8565b604082019050919050565b60006020820190508181036000830152611833816117f7565b9050919050565b7f496e73756666696369656e7420555344542062616c616e636520696e20636f6e60008201527f7472616374000000000000000000000000000000000000000000000000000000602082015250565b6000611896602583610f78565b91506118a18261183a565b604082019050919050565b600060208201905081810360008301526118c581611889565b9050919050565b7f4d696e696d756d206465706f736974206d75737420626520677265617465722060008201527f7468616e20300000000000000000000000000000000000000000000000000000602082015250565b6000611928602683610f78565b9150611933826118cc565b604082019050919050565b600060208201905081810360008301526119578161191b565b905091905056fea26469706673582212206c57926926a067c52dd8275ab884033157a9a9e203ebd9ac31a165ffc757507764736f6c63430008140033",
  "linkReferences": {},
  "deployedLinkReferences": {}
}