{
  "_format": "hh-sol-artifact-1",
  "contractName": "StakingContractV3",
  "sourceName": "contracts/StakingBurritoV3.sol",
  "abi": [
    {
      "inputs": [
        {
          "internalType": "address",
          "name": "_burritoTokenAddress",
          "type": "address"
        }
      ],
      "stateMutability": "nonpayable",
      "type": "constructor"
    },
    {
      "inputs": [
        {
          "internalType": "address",
          "name": "owner",
          "type": "address"
        }
      ],
      "name": "OwnableInvalidOwner",
      "type": "error"
    },
    {
      "inputs": [
        {
          "internalType": "address",
          "name": "account",
          "type": "address"
        }
      ],
      "name": "OwnableUnauthorizedAccount",
      "type": "error"
    },
    {
      "inputs": [],
      "name": "ReentrancyGuardReentrantCall",
      "type": "error"
    },
    {
      "anonymous": false,
      "inputs": [
        {
          "indexed": true,
          "internalType": "address",
          "name": "owner",
          "type": "address"
        },
        {
          "indexed": false,
          "internalType": "uint256",
          "name": "amount",
          "type": "uint256"
        }
      ],
      "name": "EmergencyWithdraw",
      "type": "event"
    },
    {
      "anonymous": false,
      "inputs": [
        {
          "indexed": true,
          "internalType": "address",
          "name": "previousOwner",
          "type": "address"
        },
        {
          "indexed": true,
          "internalType": "address",
          "name": "newOwner",
          "type": "address"
        }
      ],
      "name": "OwnershipTransferred",
      "type": "event"
    },
    {
      "anonymous": false,
      "inputs": [
        {
          "indexed": true,
          "internalType": "address",
          "name": "user",
          "type": "address"
        },
        {
          "indexed": false,
          "internalType": "uint256",
          "name": "amount",
          "type": "uint256"
        },
        {
          "indexed": false,
          "internalType": "uint256",
          "name": "duration",
          "type": "uint256"
        }
      ],
      "name": "Staked",
      "type": "event"
    },
    {
      "anonymous": false,
      "inputs": [
        {
          "indexed": true,
          "internalType": "address",
          "name": "user",
          "type": "address"
        },
        {
          "indexed": false,
          "internalType": "uint256",
          "name": "amount",
          "type": "uint256"
        },
        {
          "indexed": false,
          "internalType": "uint256",
          "name": "reward",
          "type": "uint256"
        }
      ],
      "name": "Unstaked",
      "type": "event"
    },
    {
      "inputs": [],
      "name": "MINIMUM_DURATION",
      "outputs": [
        {
          "internalType": "uint256",
          "name": "",
          "type": "uint256"
        }
      ],
      "stateMutability": "view",
      "type": "function"
    },
    {
      "inputs": [],
      "name": "annualAPR",
      "outputs": [
        {
          "internalType": "uint256",
          "name": "",
          "type": "uint256"
        }
      ],
      "stateMutability": "view",
      "type": "function"
    },
    {
      "inputs": [],
      "name": "burritoToken",
      "outputs": [
        {
          "internalType": "contract IERC20",
          "name": "",
          "type": "address"
        }
      ],
      "stateMutability": "view",
      "type": "function"
    },
    {
      "inputs": [
        {
          "internalType": "address",
          "name": "_user",
          "type": "address"
        }
      ],
      "name": "calculateReward",
      "outputs": [
        {
          "internalType": "uint256",
          "name": "",
          "type": "uint256"
        }
      ],
      "stateMutability": "view",
      "type": "function"
    },
    {
      "inputs": [
        {
          "internalType": "address",
          "name": "",
          "type": "address"
        }
      ],
      "name": "currentStakes",
      "outputs": [
        {
          "internalType": "uint256",
          "name": "amount",
          "type": "uint256"
        },
        {
          "internalType": "uint256",
          "name": "timestamp",
          "type": "uint256"
        },
        {
          "internalType": "uint256",
          "name": "duration",
          "type": "uint256"
        },
        {
          "internalType": "bool",
          "name": "claimed",
          "type": "bool"
        }
      ],
      "stateMutability": "view",
      "type": "function"
    },
    {
      "inputs": [],
      "name": "getAvailableRewards",
      "outputs": [
        {
          "internalType": "uint256",
          "name": "",
          "type": "uint256"
        }
      ],
      "stateMutability": "view",
      "type": "function"
    },
    {
      "inputs": [
        {
          "internalType": "address",
          "name": "_user",
          "type": "address"
        }
      ],
      "name": "getStakeHistory",
      "outputs": [
        {
          "components": [
            {
              "internalType": "uint256",
              "name": "amount",
              "type": "uint256"
            },
            {
              "internalType": "uint256",
              "name": "timestamp",
              "type": "uint256"
            },
            {
              "internalType": "uint256",
              "name": "duration",
              "type": "uint256"
            },
            {
              "internalType": "bool",
              "name": "claimed",
              "type": "bool"
            }
          ],
          "internalType": "struct StakingContractV3.Stake[]",
          "name": "",
          "type": "tuple[]"
        }
      ],
      "stateMutability": "view",
      "type": "function"
    },
    {
      "inputs": [],
      "name": "getTotalTvl",
      "outputs": [
        {
          "internalType": "uint256",
          "name": "",
          "type": "uint256"
        }
      ],
      "stateMutability": "view",
      "type": "function"
    },
    {
      "inputs": [],
      "name": "killSwitch",
      "outputs": [],
      "stateMutability": "nonpayable",
      "type": "function"
    },
    {
      "inputs": [],
      "name": "monthlyAPR",
      "outputs": [
        {
          "internalType": "uint256",
          "name": "",
          "type": "uint256"
        }
      ],
      "stateMutability": "view",
      "type": "function"
    },
    {
      "inputs": [],
      "name": "owner",
      "outputs": [
        {
          "internalType": "address",
          "name": "",
          "type": "address"
        }
      ],
      "stateMutability": "view",
      "type": "function"
    },
    {
      "inputs": [],
      "name": "renounceOwnership",
      "outputs": [],
      "stateMutability": "nonpayable",
      "type": "function"
    },
    {
      "inputs": [
        {
          "internalType": "uint256",
          "name": "_apr",
          "type": "uint256"
        }
      ],
      "name": "setAnnualAPR",
      "outputs": [],
      "stateMutability": "nonpayable",
      "type": "function"
    },
    {
      "inputs": [
        {
          "internalType": "uint256",
          "name": "_apr",
          "type": "uint256"
        }
      ],
      "name": "setMonthlyAPR",
      "outputs": [],
      "stateMutability": "nonpayable",
      "type": "function"
    },
    {
      "inputs": [
        {
          "internalType": "uint256",
          "name": "_amount",
          "type": "uint256"
        },
        {
          "internalType": "uint256",
          "name": "_duration",
          "type": "uint256"
        }
      ],
      "name": "stake",
      "outputs": [],
      "stateMutability": "nonpayable",
      "type": "function"
    },
    {
      "inputs": [
        {
          "internalType": "address",
          "name": "",
          "type": "address"
        },
        {
          "internalType": "uint256",
          "name": "",
          "type": "uint256"
        }
      ],
      "name": "stakeHistory",
      "outputs": [
        {
          "internalType": "uint256",
          "name": "amount",
          "type": "uint256"
        },
        {
          "internalType": "uint256",
          "name": "timestamp",
          "type": "uint256"
        },
        {
          "internalType": "uint256",
          "name": "duration",
          "type": "uint256"
        },
        {
          "internalType": "bool",
          "name": "claimed",
          "type": "bool"
        }
      ],
      "stateMutability": "view",
      "type": "function"
    },
    {
      "inputs": [
        {
          "internalType": "uint256",
          "name": "",
          "type": "uint256"
        }
      ],
      "name": "stakers",
      "outputs": [
        {
          "internalType": "address",
          "name": "",
          "type": "address"
        }
      ],
      "stateMutability": "view",
      "type": "function"
    },
    {
      "inputs": [
        {
          "internalType": "address",
          "name": "newOwner",
          "type": "address"
        }
      ],
      "name": "transferOwnership",
      "outputs": [],
      "stateMutability": "nonpayable",
      "type": "function"
    },
    {
      "inputs": [],
      "name": "unstake",
      "outputs": [],
      "stateMutability": "nonpayable",
      "type": "function"
    }
  ],
  "bytecode": "0x608060405266271471148780006006556702bc985aedb500006007553480156200002857600080fd5b50604051620022033803806200220383398181016040528101906200004e919062000256565b336001600081905550600073ffffffffffffffffffffffffffffffffffffffff168173ffffffffffffffffffffffffffffffffffffffff1603620000cc5760006040517f1e4fbdf7000000000000000000000000000000000000000000000000000000008152600401620000c3919062000299565b60405180910390fd5b620000dd816200012660201b60201c565b5080600260006101000a81548173ffffffffffffffffffffffffffffffffffffffff021916908373ffffffffffffffffffffffffffffffffffffffff16021790555050620002b6565b6000600160009054906101000a900473ffffffffffffffffffffffffffffffffffffffff16905081600160006101000a81548173ffffffffffffffffffffffffffffffffffffffff021916908373ffffffffffffffffffffffffffffffffffffffff1602179055508173ffffffffffffffffffffffffffffffffffffffff168173ffffffffffffffffffffffffffffffffffffffff167f8be0079c531659141344cd1fd0a4f28419497f9722a3daafe3b4186f6b6457e060405160405180910390a35050565b600080fd5b600073ffffffffffffffffffffffffffffffffffffffff82169050919050565b60006200021e82620001f1565b9050919050565b620002308162000211565b81146200023c57600080fd5b50565b600081519050620002508162000225565b92915050565b6000602082840312156200026f576200026e620001ec565b5b60006200027f848285016200023f565b91505092915050565b620002938162000211565b82525050565b6000602082019050620002b0600083018462000288565b92915050565b611f3d80620002c66000396000f3fe608060405234801561001057600080fd5b50600436106101215760003560e01c8063a9b66fdb116100ad578063f2fde38b11610071578063f2fde38b146102c3578063f72be91a146102df578063f85d428214610312578063fc9c99ac1461032e578063fd5e6dd11461034c57610121565b8063a9b66fdb1461020a578063ada146981461023a578063b66d825214610244578063b81c21e014610277578063d82e39621461029357610121565b80637b0472f0116100f45780637b0472f014610176578063854e518a1461019257806386940105146101b05780638da5cb5b146101ce5780639c0a2b16146101ec57610121565b80632d28e89d146101265780632def66201461014457806361a0c7641461014e578063715018a61461016c575b600080fd5b61012e61037c565b60405161013b91906114d0565b60405180910390f35b61014c610381565b005b6101566106d3565b60405161016391906114d0565b60405180910390f35b6101746106d9565b005b610190600480360381019061018b919061151c565b6106ed565b005b61019a610b2d565b6040516101a791906114d0565b60405180910390f35b6101b8610b33565b6040516101c591906115db565b60405180910390f35b6101d6610b59565b6040516101e39190611617565b60405180910390f35b6101f4610b83565b60405161020191906114d0565b60405180910390f35b610224600480360381019061021f919061165e565b610cb4565b60405161023191906117b9565b60405180910390f35b610242610d8b565b005b61025e600480360381019061025991906117db565b610fd2565b60405161026e949392919061182a565b60405180910390f35b610291600480360381019061028c919061186f565b61102c565b005b6102ad60048036038101906102a8919061165e565b61103e565b6040516102ba91906114d0565b60405180910390f35b6102dd60048036038101906102d8919061165e565b61113e565b005b6102f960048036038101906102f4919061165e565b6111c4565b604051610309949392919061182a565b60405180910390f35b61032c6004803603810190610327919061186f565b611201565b005b610336611213565b60405161034391906114d0565b60405180910390f35b6103666004803603810190610361919061186f565b6112d3565b6040516103739190611617565b60405180910390f35b601e81565b610389611312565b6000600360003373ffffffffffffffffffffffffffffffffffffffff1673ffffffffffffffffffffffffffffffffffffffff16815260200190815260200160002090506000816001015411610413576040517f08c379a000000000000000000000000000000000000000000000000000000000815260040161040a906118f9565b60405180910390fd5b6201518081600201546104269190611948565b8160010154610435919061198a565b421015610477576040517f08c379a000000000000000000000000000000000000000000000000000000000815260040161046e90611a0a565b60405180910390fd5b60006104823361103e565b90506000818360000154610496919061198a565b905080600260009054906101000a900473ffffffffffffffffffffffffffffffffffffffff1673ffffffffffffffffffffffffffffffffffffffff166370a08231306040518263ffffffff1660e01b81526004016104f49190611617565b602060405180830381865afa158015610511573d6000803e3d6000fd5b505050506040513d601f19601f820116820180604052508101906105359190611a3f565b1015610576576040517f08c379a000000000000000000000000000000000000000000000000000000000815260040161056d90611ab8565b60405180910390fd5b60018360030160006101000a81548160ff021916908315150217905550600260009054906101000a900473ffffffffffffffffffffffffffffffffffffffff1673ffffffffffffffffffffffffffffffffffffffff1663a9059cbb33836040518363ffffffff1660e01b81526004016105f0929190611ad8565b6020604051808303816000875af115801561060f573d6000803e3d6000fd5b505050506040513d601f19601f820116820180604052508101906106339190611b2d565b610672576040517f08c379a000000000000000000000000000000000000000000000000000000000815260040161066990611ba6565b60405180910390fd5b3373ffffffffffffffffffffffffffffffffffffffff167f7fc4727e062e336010f2c282598ef5f14facb3de68cf8195c2f23e1454b2b74e8460000154846040516106be929190611bc6565b60405180910390a25050506106d1611358565b565b60065481565b6106e1611362565b6106eb60006113e9565b565b6106f5611312565b601e811015610739576040517f08c379a000000000000000000000000000000000000000000000000000000000815260040161073090611c61565b60405180910390fd5b6000821161077c576040517f08c379a000000000000000000000000000000000000000000000000000000000815260040161077390611ccd565b60405180910390fd5b600260009054906101000a900473ffffffffffffffffffffffffffffffffffffffff1673ffffffffffffffffffffffffffffffffffffffff166323b872dd3330856040518463ffffffff1660e01b81526004016107db93929190611ced565b6020604051808303816000875af11580156107fa573d6000803e3d6000fd5b505050506040513d601f19601f8201168201806040525081019061081e9190611b2d565b506000600360003373ffffffffffffffffffffffffffffffffffffffff1673ffffffffffffffffffffffffffffffffffffffff16815260200190815260200160002090506000816001015411801561088557508060030160009054906101000a900460ff16155b1561093357600083826000015461089c919061198a565b905060008185426108ad9190611948565b846000015485600101546108c19190611948565b6108cb919061198a565b6108d59190611d53565b905060008286866108e69190611948565b856000015486600201546108fa9190611948565b610904919061198a565b61090e9190611d53565b90508284600001819055508184600101819055508084600201819055505050506109dc565b82816000018190555042816001018190555081816002018190555060008160030160006101000a81548160ff02191690831515021790555060008160000154036109db576005339080600181540180825580915050600190039060005260206000200160009091909190916101000a81548173ffffffffffffffffffffffffffffffffffffffff021916908373ffffffffffffffffffffffffffffffffffffffff1602179055505b5b600460003373ffffffffffffffffffffffffffffffffffffffff1673ffffffffffffffffffffffffffffffffffffffff168152602001908152602001600020600360003373ffffffffffffffffffffffffffffffffffffffff1673ffffffffffffffffffffffffffffffffffffffff16815260200190815260200160002090806001815401808255809150506001900390600052602060002090600402016000909190919091506000820154816000015560018201548160010155600282015481600201556003820160009054906101000a900460ff168160030160006101000a81548160ff02191690831515021790555050503373ffffffffffffffffffffffffffffffffffffffff167f1449c6dd7851abc30abf37f57715f492010519147cc2652fbc38202c18a6ee908484604051610b18929190611bc6565b60405180910390a250610b29611358565b5050565b60075481565b600260009054906101000a900473ffffffffffffffffffffffffffffffffffffffff1681565b6000600160009054906101000a900473ffffffffffffffffffffffffffffffffffffffff16905090565b6000806000905060005b600580549050811015610cac5760006003600060058481548110610bb457610bb3611d84565b5b9060005260206000200160009054906101000a900473ffffffffffffffffffffffffffffffffffffffff1673ffffffffffffffffffffffffffffffffffffffff1673ffffffffffffffffffffffffffffffffffffffff16815260200190815260200160002090508060030160009054906101000a900460ff16610c9857806000015483610c41919061198a565b9250610c8a60058381548110610c5a57610c59611d84565b5b9060005260206000200160009054906101000a900473ffffffffffffffffffffffffffffffffffffffff1661103e565b83610c95919061198a565b92505b508080610ca490611db3565b915050610b8d565b508091505090565b6060600460008373ffffffffffffffffffffffffffffffffffffffff1673ffffffffffffffffffffffffffffffffffffffff168152602001908152602001600020805480602002602001604051908101604052809291908181526020016000905b82821015610d8057838290600052602060002090600402016040518060800160405290816000820154815260200160018201548152602001600282015481526020016003820160009054906101000a900460ff16151515158152505081526020019060010190610d15565b505050509050919050565b610d93611362565b6000600260009054906101000a900473ffffffffffffffffffffffffffffffffffffffff1673ffffffffffffffffffffffffffffffffffffffff166370a08231306040518263ffffffff1660e01b8152600401610df09190611617565b602060405180830381865afa158015610e0d573d6000803e3d6000fd5b505050506040513d601f19601f82011682018060405250810190610e319190611a3f565b90506000610e3d610b83565b905060008183610e4d9190611dfb565b905060008111610e92576040517f08c379a0000000000000000000000000000000000000000000000000000000008152600401610e8990611e7b565b60405180910390fd5b600260009054906101000a900473ffffffffffffffffffffffffffffffffffffffff1673ffffffffffffffffffffffffffffffffffffffff1663a9059cbb610ed8610b59565b836040518363ffffffff1660e01b8152600401610ef6929190611ad8565b6020604051808303816000875af1158015610f15573d6000803e3d6000fd5b505050506040513d601f19601f82011682018060405250810190610f399190611b2d565b610f78576040517f08c379a0000000000000000000000000000000000000000000000000000000008152600401610f6f90611ee7565b60405180910390fd5b610f80610b59565b73ffffffffffffffffffffffffffffffffffffffff167f5fafa99d0643513820be26656b45130b01e1c03062e1266bf36f88cbd3bd969582604051610fc591906114d0565b60405180910390a2505050565b60046020528160005260406000208181548110610fee57600080fd5b9060005260206000209060040201600091509150508060000154908060010154908060020154908060030160009054906101000a900460ff16905084565b611034611362565b8060078190555050565b600080600360008473ffffffffffffffffffffffffffffffffffffffff1673ffffffffffffffffffffffffffffffffffffffff1681526020019081526020016000206040518060800160405290816000820154815260200160018201548152602001600282015481526020016003820160009054906101000a900460ff161515151581525050905060008160200151036110dc576000915050611139565b600081604001519050600061016d82106110f8576007546110fc565b6006545b905060006813c9647e25a99400008383866000015161111b9190611948565b6111259190611948565b61112f9190611d53565b9050809450505050505b919050565b611146611362565b600073ffffffffffffffffffffffffffffffffffffffff168173ffffffffffffffffffffffffffffffffffffffff16036111b85760006040517f1e4fbdf70000000000000000000000000000000000000000000000000000000081526004016111af9190611617565b60405180910390fd5b6111c1816113e9565b50565b60036020528060005260406000206000915090508060000154908060010154908060020154908060030160009054906101000a900460ff16905084565b611209611362565b8060068190555050565b600080600260009054906101000a900473ffffffffffffffffffffffffffffffffffffffff1673ffffffffffffffffffffffffffffffffffffffff166370a08231306040518263ffffffff1660e01b81526004016112719190611617565b602060405180830381865afa15801561128e573d6000803e3d6000fd5b505050506040513d601f19601f820116820180604052508101906112b29190611a3f565b905060006112be610b83565b905080826112cc9190611dfb565b9250505090565b600581815481106112e357600080fd5b906000526020600020016000915054906101000a900473ffffffffffffffffffffffffffffffffffffffff1681565b60026000540361134e576040517f3ee5aeb500000000000000000000000000000000000000000000000000000000815260040160405180910390fd5b6002600081905550565b6001600081905550565b61136a6114af565b73ffffffffffffffffffffffffffffffffffffffff16611388610b59565b73ffffffffffffffffffffffffffffffffffffffff16146113e7576113ab6114af565b6040517f118cdaa70000000000000000000000000000000000000000000000000000000081526004016113de9190611617565b60405180910390fd5b565b6000600160009054906101000a900473ffffffffffffffffffffffffffffffffffffffff16905081600160006101000a81548173ffffffffffffffffffffffffffffffffffffffff021916908373ffffffffffffffffffffffffffffffffffffffff1602179055508173ffffffffffffffffffffffffffffffffffffffff168173ffffffffffffffffffffffffffffffffffffffff167f8be0079c531659141344cd1fd0a4f28419497f9722a3daafe3b4186f6b6457e060405160405180910390a35050565b600033905090565b6000819050919050565b6114ca816114b7565b82525050565b60006020820190506114e560008301846114c1565b92915050565b600080fd5b6114f9816114b7565b811461150457600080fd5b50565b600081359050611516816114f0565b92915050565b60008060408385031215611533576115326114eb565b5b600061154185828601611507565b925050602061155285828601611507565b9150509250929050565b600073ffffffffffffffffffffffffffffffffffffffff82169050919050565b6000819050919050565b60006115a161159c6115978461155c565b61157c565b61155c565b9050919050565b60006115b382611586565b9050919050565b60006115c5826115a8565b9050919050565b6115d5816115ba565b82525050565b60006020820190506115f060008301846115cc565b92915050565b60006116018261155c565b9050919050565b611611816115f6565b82525050565b600060208201905061162c6000830184611608565b92915050565b61163b816115f6565b811461164657600080fd5b50565b60008135905061165881611632565b92915050565b600060208284031215611674576116736114eb565b5b600061168284828501611649565b91505092915050565b600081519050919050565b600082825260208201905092915050565b6000819050602082019050919050565b6116c0816114b7565b82525050565b60008115159050919050565b6116db816116c6565b82525050565b6080820160008201516116f760008501826116b7565b50602082015161170a60208501826116b7565b50604082015161171d60408501826116b7565b50606082015161173060608501826116d2565b50505050565b600061174283836116e1565b60808301905092915050565b6000602082019050919050565b60006117668261168b565b6117708185611696565b935061177b836116a7565b8060005b838110156117ac5781516117938882611736565b975061179e8361174e565b92505060018101905061177f565b5085935050505092915050565b600060208201905081810360008301526117d3818461175b565b905092915050565b600080604083850312156117f2576117f16114eb565b5b600061180085828601611649565b925050602061181185828601611507565b9150509250929050565b611824816116c6565b82525050565b600060808201905061183f60008301876114c1565b61184c60208301866114c1565b61185960408301856114c1565b611866606083018461181b565b95945050505050565b600060208284031215611885576118846114eb565b5b600061189384828501611507565b91505092915050565b600082825260208201905092915050565b7f4e6f20746f6b656e73207374616b656400000000000000000000000000000000600082015250565b60006118e360108361189c565b91506118ee826118ad565b602082019050919050565b60006020820190508181036000830152611912816118d6565b9050919050565b7f4e487b7100000000000000000000000000000000000000000000000000000000600052601160045260246000fd5b6000611953826114b7565b915061195e836114b7565b925082820261196c816114b7565b9150828204841483151761198357611982611919565b5b5092915050565b6000611995826114b7565b91506119a0836114b7565b92508282019050808211156119b8576119b7611919565b5b92915050565b7f5374616b696e6720706572696f64206e6f7420796574206f7665720000000000600082015250565b60006119f4601b8361189c565b91506119ff826119be565b602082019050919050565b60006020820190508181036000830152611a23816119e7565b9050919050565b600081519050611a39816114f0565b92915050565b600060208284031215611a5557611a546114eb565b5b6000611a6384828501611a2a565b91505092915050565b7f496e73756666696369656e7420636f6e74726163742062616c616e6365000000600082015250565b6000611aa2601d8361189c565b9150611aad82611a6c565b602082019050919050565b60006020820190508181036000830152611ad181611a95565b9050919050565b6000604082019050611aed6000830185611608565b611afa60208301846114c1565b9392505050565b611b0a816116c6565b8114611b1557600080fd5b50565b600081519050611b2781611b01565b92915050565b600060208284031215611b4357611b426114eb565b5b6000611b5184828501611b18565b91505092915050565b7f5472616e73666572206661696c65640000000000000000000000000000000000600082015250565b6000611b90600f8361189c565b9150611b9b82611b5a565b602082019050919050565b60006020820190508181036000830152611bbf81611b83565b9050919050565b6000604082019050611bdb60008301856114c1565b611be860208301846114c1565b9392505050565b7f4475726174696f6e206d757374206265206174206c656173742033302064617960008201527f7300000000000000000000000000000000000000000000000000000000000000602082015250565b6000611c4b60218361189c565b9150611c5682611bef565b604082019050919050565b60006020820190508181036000830152611c7a81611c3e565b9050919050565b7f416d6f756e74206d7573742062652067726561746572207468616e2030000000600082015250565b6000611cb7601d8361189c565b9150611cc282611c81565b602082019050919050565b60006020820190508181036000830152611ce681611caa565b9050919050565b6000606082019050611d026000830186611608565b611d0f6020830185611608565b611d1c60408301846114c1565b949350505050565b7f4e487b7100000000000000000000000000000000000000000000000000000000600052601260045260246000fd5b6000611d5e826114b7565b9150611d69836114b7565b925082611d7957611d78611d24565b5b828204905092915050565b7f4e487b7100000000000000000000000000000000000000000000000000000000600052603260045260246000fd5b6000611dbe826114b7565b91507fffffffffffffffffffffffffffffffffffffffffffffffffffffffffffffffff8203611df057611def611919565b5b600182019050919050565b6000611e06826114b7565b9150611e11836114b7565b9250828203905081811115611e2957611e28611919565b5b92915050565b7f4e6f20776974686472617761626c6520746f6b656e7320617661696c61626c65600082015250565b6000611e6560208361189c565b9150611e7082611e2f565b602082019050919050565b60006020820190508181036000830152611e9481611e58565b9050919050565b7f456d657267656e6379207472616e73666572206661696c656400000000000000600082015250565b6000611ed160198361189c565b9150611edc82611e9b565b602082019050919050565b60006020820190508181036000830152611f0081611ec4565b905091905056fea2646970667358221220de0288afd154d23e309206040717c3961c9d8d613cc52f96a1e9dd903318cc3164736f6c63430008140033",
  "linkReferences": {},
  "deployedLinkReferences": {}
}