{
  "_format": "hh-sol-artifact-1",
  "contractName": "StakingContractV5",
  "sourceName": "contracts/StackingContractV5.sol",
  "abi": [
    {
      "inputs": [
        {
          "internalType": "address",
          "name": "_burritoTokenAddress",
          "type": "address"
        }
      ],
      "stateMutability": "nonpayable",
      "type": "constructor"
    },
    {
      "inputs": [
        {
          "internalType": "address",
          "name": "target",
          "type": "address"
        }
      ],
      "name": "AddressEmptyCode",
      "type": "error"
    },
    {
      "inputs": [
        {
          "internalType": "address",
          "name": "account",
          "type": "address"
        }
      ],
      "name": "AddressInsufficientBalance",
      "type": "error"
    },
    {
      "inputs": [],
      "name": "EnforcedPause",
      "type": "error"
    },
    {
      "inputs": [],
      "name": "ExpectedPause",
      "type": "error"
    },
    {
      "inputs": [],
      "name": "FailedInnerCall",
      "type": "error"
    },
    {
      "inputs": [
        {
          "internalType": "address",
          "name": "owner",
          "type": "address"
        }
      ],
      "name": "OwnableInvalidOwner",
      "type": "error"
    },
    {
      "inputs": [
        {
          "internalType": "address",
          "name": "account",
          "type": "address"
        }
      ],
      "name": "OwnableUnauthorizedAccount",
      "type": "error"
    },
    {
      "inputs": [],
      "name": "ReentrancyGuardReentrantCall",
      "type": "error"
    },
    {
      "inputs": [
        {
          "internalType": "address",
          "name": "token",
          "type": "address"
        }
      ],
      "name": "SafeERC20FailedOperation",
      "type": "error"
    },
    {
      "anonymous": false,
      "inputs": [
        {
          "indexed": true,
          "internalType": "uint256",
          "name": "monthlyAPR",
          "type": "uint256"
        },
        {
          "indexed": true,
          "internalType": "uint256",
          "name": "annualAPR",
          "type": "uint256"
        }
      ],
      "name": "APRUpdated",
      "type": "event"
    },
    {
      "anonymous": false,
      "inputs": [
        {
          "indexed": true,
          "internalType": "address",
          "name": "user",
          "type": "address"
        },
        {
          "indexed": true,
          "internalType": "uint256",
          "name": "amount",
          "type": "uint256"
        }
      ],
      "name": "EmergencyWithdraw",
      "type": "event"
    },
    {
      "anonymous": false,
      "inputs": [
        {
          "indexed": true,
          "internalType": "uint256",
          "name": "newMaxTotalStaked",
          "type": "uint256"
        }
      ],
      "name": "MaxTotalStakedUpdated",
      "type": "event"
    },
    {
      "anonymous": false,
      "inputs": [
        {
          "indexed": true,
          "internalType": "address",
          "name": "previousOwner",
          "type": "address"
        },
        {
          "indexed": true,
          "internalType": "address",
          "name": "newOwner",
          "type": "address"
        }
      ],
      "name": "OwnershipTransferred",
      "type": "event"
    },
    {
      "anonymous": false,
      "inputs": [
        {
          "indexed": false,
          "internalType": "address",
          "name": "account",
          "type": "address"
        }
      ],
      "name": "Paused",
      "type": "event"
    },
    {
      "anonymous": false,
      "inputs": [
        {
          "indexed": true,
          "internalType": "address",
          "name": "user",
          "type": "address"
        },
        {
          "indexed": true,
          "internalType": "uint256",
          "name": "amount",
          "type": "uint256"
        },
        {
          "indexed": true,
          "internalType": "uint256",
          "name": "duration",
          "type": "uint256"
        },
        {
          "indexed": false,
          "internalType": "uint256",
          "name": "rewardRate",
          "type": "uint256"
        }
      ],
      "name": "Staked",
      "type": "event"
    },
    {
      "anonymous": false,
      "inputs": [
        {
          "indexed": true,
          "internalType": "uint256",
          "name": "maxDuration",
          "type": "uint256"
        },
        {
          "indexed": true,
          "internalType": "uint256",
          "name": "minDuration",
          "type": "uint256"
        },
        {
          "indexed": true,
          "internalType": "uint256",
          "name": "maxStakeAmount",
          "type": "uint256"
        }
      ],
      "name": "StakingLimitsUpdated",
      "type": "event"
    },
    {
      "anonymous": false,
      "inputs": [
        {
          "indexed": false,
          "internalType": "address",
          "name": "account",
          "type": "address"
        }
      ],
      "name": "Unpaused",
      "type": "event"
    },
    {
      "anonymous": false,
      "inputs": [
        {
          "indexed": true,
          "internalType": "address",
          "name": "user",
          "type": "address"
        },
        {
          "indexed": true,
          "internalType": "uint256",
          "name": "amount",
          "type": "uint256"
        },
        {
          "indexed": true,
          "internalType": "uint256",
          "name": "reward",
          "type": "uint256"
        }
      ],
      "name": "Unstaked",
      "type": "event"
    },
    {
      "inputs": [],
      "name": "annualAPR",
      "outputs": [
        {
          "internalType": "uint256",
          "name": "",
          "type": "uint256"
        }
      ],
      "stateMutability": "view",
      "type": "function"
    },
    {
      "inputs": [],
      "name": "burritoToken",
      "outputs": [
        {
          "internalType": "contract IERC20",
          "name": "",
          "type": "address"
        }
      ],
      "stateMutability": "view",
      "type": "function"
    },
    {
      "inputs": [
        {
          "internalType": "address",
          "name": "_user",
          "type": "address"
        },
        {
          "internalType": "uint256",
          "name": "_stakeIndex",
          "type": "uint256"
        }
      ],
      "name": "calculateReward",
      "outputs": [
        {
          "internalType": "uint256",
          "name": "",
          "type": "uint256"
        }
      ],
      "stateMutability": "view",
      "type": "function"
    },
    {
      "inputs": [
        {
          "internalType": "uint256",
          "name": "_stakeIndex",
          "type": "uint256"
        }
      ],
      "name": "emergencyWithdraw",
      "outputs": [],
      "stateMutability": "nonpayable",
      "type": "function"
    },
    {
      "inputs": [],
      "name": "getAvailableRewards",
      "outputs": [
        {
          "internalType": "uint256",
          "name": "",
          "type": "uint256"
        }
      ],
      "stateMutability": "view",
      "type": "function"
    },
    {
      "inputs": [
        {
          "internalType": "uint256",
          "name": "_index",
          "type": "uint256"
        }
      ],
      "name": "getStakerAtIndex",
      "outputs": [
        {
          "internalType": "address",
          "name": "",
          "type": "address"
        }
      ],
      "stateMutability": "view",
      "type": "function"
    },
    {
      "inputs": [],
      "name": "getStakerCount",
      "outputs": [
        {
          "internalType": "uint256",
          "name": "",
          "type": "uint256"
        }
      ],
      "stateMutability": "view",
      "type": "function"
    },
    {
      "inputs": [],
      "name": "getTotalTvl",
      "outputs": [
        {
          "internalType": "uint256",
          "name": "",
          "type": "uint256"
        }
      ],
      "stateMutability": "view",
      "type": "function"
    },
    {
      "inputs": [
        {
          "internalType": "address",
          "name": "_user",
          "type": "address"
        }
      ],
      "name": "getUserStakes",
      "outputs": [
        {
          "components": [
            {
              "internalType": "uint256",
              "name": "amount",
              "type": "uint256"
            },
            {
              "internalType": "uint256",
              "name": "timestamp",
              "type": "uint256"
            },
            {
              "internalType": "uint256",
              "name": "duration",
              "type": "uint256"
            },
            {
              "internalType": "bool",
              "name": "claimed",
              "type": "bool"
            },
            {
              "internalType": "uint256",
              "name": "rewardRate",
              "type": "uint256"
            }
          ],
          "internalType": "struct StakingContractV5.Stake[]",
          "name": "",
          "type": "tuple[]"
        }
      ],
      "stateMutability": "view",
      "type": "function"
    },
    {
      "inputs": [],
      "name": "killSwitch",
      "outputs": [],
      "stateMutability": "nonpayable",
      "type": "function"
    },
    {
      "inputs": [],
      "name": "limits",
      "outputs": [
        {
          "internalType": "uint256",
          "name": "maxDuration",
          "type": "uint256"
        },
        {
          "internalType": "uint256",
          "name": "minDuration",
          "type": "uint256"
        },
        {
          "internalType": "uint256",
          "name": "maxStakeAmount",
          "type": "uint256"
        },
        {
          "internalType": "uint256",
          "name": "maxStakesPerUser",
          "type": "uint256"
        }
      ],
      "stateMutability": "view",
      "type": "function"
    },
    {
      "inputs": [],
      "name": "maxTotalStaked",
      "outputs": [
        {
          "internalType": "uint256",
          "name": "",
          "type": "uint256"
        }
      ],
      "stateMutability": "view",
      "type": "function"
    },
    {
      "inputs": [],
      "name": "monthlyAPR",
      "outputs": [
        {
          "internalType": "uint256",
          "name": "",
          "type": "uint256"
        }
      ],
      "stateMutability": "view",
      "type": "function"
    },
    {
      "inputs": [],
      "name": "owner",
      "outputs": [
        {
          "internalType": "address",
          "name": "",
          "type": "address"
        }
      ],
      "stateMutability": "view",
      "type": "function"
    },
    {
      "inputs": [],
      "name": "pause",
      "outputs": [],
      "stateMutability": "nonpayable",
      "type": "function"
    },
    {
      "inputs": [],
      "name": "paused",
      "outputs": [
        {
          "internalType": "bool",
          "name": "",
          "type": "bool"
        }
      ],
      "stateMutability": "view",
      "type": "function"
    },
    {
      "inputs": [],
      "name": "renounceOwnership",
      "outputs": [],
      "stateMutability": "nonpayable",
      "type": "function"
    },
    {
      "inputs": [
        {
          "internalType": "uint256",
          "name": "_monthlyAPR",
          "type": "uint256"
        },
        {
          "internalType": "uint256",
          "name": "_annualAPR",
          "type": "uint256"
        }
      ],
      "name": "setAPR",
      "outputs": [],
      "stateMutability": "nonpayable",
      "type": "function"
    },
    {
      "inputs": [
        {
          "internalType": "uint256",
          "name": "_maxTotalStaked",
          "type": "uint256"
        }
      ],
      "name": "setMaxTotalStaked",
      "outputs": [],
      "stateMutability": "nonpayable",
      "type": "function"
    },
    {
      "inputs": [
        {
          "internalType": "uint256",
          "name": "_maxDuration",
          "type": "uint256"
        },
        {
          "internalType": "uint256",
          "name": "_minDuration",
          "type": "uint256"
        },
        {
          "internalType": "uint256",
          "name": "_maxStakeAmount",
          "type": "uint256"
        },
        {
          "internalType": "uint256",
          "name": "_maxStakesPerUser",
          "type": "uint256"
        }
      ],
      "name": "setStakingLimits",
      "outputs": [],
      "stateMutability": "nonpayable",
      "type": "function"
    },
    {
      "inputs": [
        {
          "internalType": "uint256",
          "name": "_amount",
          "type": "uint256"
        },
        {
          "internalType": "uint256",
          "name": "_duration",
          "type": "uint256"
        }
      ],
      "name": "stake",
      "outputs": [],
      "stateMutability": "nonpayable",
      "type": "function"
    },
    {
      "inputs": [
        {
          "internalType": "uint256",
          "name": "",
          "type": "uint256"
        }
      ],
      "name": "stakers",
      "outputs": [
        {
          "internalType": "address",
          "name": "",
          "type": "address"
        }
      ],
      "stateMutability": "view",
      "type": "function"
    },
    {
      "inputs": [],
      "name": "totalRewardsPaid",
      "outputs": [
        {
          "internalType": "uint256",
          "name": "",
          "type": "uint256"
        }
      ],
      "stateMutability": "view",
      "type": "function"
    },
    {
      "inputs": [],
      "name": "totalStaked",
      "outputs": [
        {
          "internalType": "uint256",
          "name": "",
          "type": "uint256"
        }
      ],
      "stateMutability": "view",
      "type": "function"
    },
    {
      "inputs": [
        {
          "internalType": "address",
          "name": "newOwner",
          "type": "address"
        }
      ],
      "name": "transferOwnership",
      "outputs": [],
      "stateMutability": "nonpayable",
      "type": "function"
    },
    {
      "inputs": [],
      "name": "unpause",
      "outputs": [],
      "stateMutability": "nonpayable",
      "type": "function"
    },
    {
      "inputs": [
        {
          "internalType": "uint256",
          "name": "_stakeIndex",
          "type": "uint256"
        }
      ],
      "name": "unstake",
      "outputs": [],
      "stateMutability": "nonpayable",
      "type": "function"
    },
    {
      "inputs": [
        {
          "internalType": "address",
          "name": "",
          "type": "address"
        },
        {
          "internalType": "uint256",
          "name": "",
          "type": "uint256"
        }
      ],
      "name": "userStakes",
      "outputs": [
        {
          "internalType": "uint256",
          "name": "amount",
          "type": "uint256"
        },
        {
          "internalType": "uint256",
          "name": "timestamp",
          "type": "uint256"
        },
        {
          "internalType": "uint256",
          "name": "duration",
          "type": "uint256"
        },
        {
          "internalType": "bool",
          "name": "claimed",
          "type": "bool"
        },
        {
          "internalType": "uint256",
          "name": "rewardRate",
          "type": "uint256"
        }
      ],
      "stateMutability": "view",
      "type": "function"
    }
  ],
  "bytecode": "0x60a060405260405180608001604052806301e13380815260200162278d00815260200169d3c21bcecceda10000008152602001600a815250600460008201518160000155602082015181600101556040820151816002015560608201518160030155505066271471148780006008556702bc985aedb500006009556a084595161401484a000000600c553480156200009657600080fd5b506040516200340a3803806200340a8339818101604052810190620000bc919062000344565b336001600081905550600073ffffffffffffffffffffffffffffffffffffffff168173ffffffffffffffffffffffffffffffffffffffff16036200013a5760006040517f1e4fbdf700000000000000000000000000000000000000000000000000000000815260040162000131919062000387565b60405180910390fd5b6200014b816200021460201b60201c565b506000600160146101000a81548160ff021916908315150217905550600073ffffffffffffffffffffffffffffffffffffffff168173ffffffffffffffffffffffffffffffffffffffff1603620001d9576040517f08c379a0000000000000000000000000000000000000000000000000000000008152600401620001d09062000405565b60405180910390fd5b8073ffffffffffffffffffffffffffffffffffffffff1660808173ffffffffffffffffffffffffffffffffffffffff16815250505062000427565b6000600160009054906101000a900473ffffffffffffffffffffffffffffffffffffffff16905081600160006101000a81548173ffffffffffffffffffffffffffffffffffffffff021916908373ffffffffffffffffffffffffffffffffffffffff1602179055508173ffffffffffffffffffffffffffffffffffffffff168173ffffffffffffffffffffffffffffffffffffffff167f8be0079c531659141344cd1fd0a4f28419497f9722a3daafe3b4186f6b6457e060405160405180910390a35050565b600080fd5b600073ffffffffffffffffffffffffffffffffffffffff82169050919050565b60006200030c82620002df565b9050919050565b6200031e81620002ff565b81146200032a57600080fd5b50565b6000815190506200033e8162000313565b92915050565b6000602082840312156200035d576200035c620002da565b5b60006200036d848285016200032d565b91505092915050565b6200038181620002ff565b82525050565b60006020820190506200039e600083018462000376565b92915050565b600082825260208201905092915050565b7f496e76616c696420746f6b656e20616464726573730000000000000000000000600082015250565b6000620003ed601583620003a4565b9150620003fa82620003b5565b602082019050919050565b600060208201905081810360008301526200042081620003de565b9050919050565b608051612f8f6200047b6000396000818161094a01528181610a7d01528181610df601528181611104015281816111a6015281816111ef015281816115f70152818161179f015261191e0152612f8f6000f3fe608060405234801561001057600080fd5b50600436106101c45760003560e01c8063817b1cd2116100f95780639c0a2b1611610097578063b5d5b5fa11610071578063b5d5b5fa14610476578063f2fde38b146104aa578063fc9c99ac146104c6578063fd5e6dd1146104e4576101c4565b80639c0a2b1614610432578063a230561b14610450578063ada146981461046c576101c4565b8063854e518a116100d3578063854e518a146103b7578063860aefcf146103d557806386940105146103f65780638da5cb5b14610414576101c4565b8063817b1cd21461035f578063842e29811461037d5780638456cb59146103ad576101c4565b806357c26ba41161016657806361a0c7641161014057806361a0c764146102fd578063715018a61461031b57806374958e35146103255780637b0472f014610343576101c4565b806357c26ba4146102a55780635a68c154146102c15780635c975abb146102df576101c4565b80632e17de78116101a25780632e17de78146102475780632feaf3fa146102635780633f4ba83a1461027f5780635312ea8e14610289576101c4565b80631319649d146101c95780631852e8d9146101e75780632979629014610217575b600080fd5b6101d1610514565b6040516101de9190612057565b60405180910390f35b61020160048036038101906101fc9190612101565b610521565b60405161020e9190612057565b60405180910390f35b610231600480360381019061022c9190612141565b6106f7565b60405161023e919061217d565b60405180910390f35b610261600480360381019061025c9190612141565b610786565b005b61027d60048036038101906102789190612198565b610b18565b005b610287610c4d565b005b6102a3600480360381019061029e9190612141565b610c67565b005b6102bf60048036038101906102ba9190612141565b610e8b565b005b6102c9610f0f565b6040516102d69190612057565b60405180910390f35b6102e7610f15565b6040516102f4919061221a565b60405180910390f35b610305610f2c565b6040516103129190612057565b60405180910390f35b610323610f32565b005b61032d610f46565b60405161033a9190612057565b60405180910390f35b61035d60048036038101906103589190612235565b610f4c565b005b6103676114d8565b6040516103749190612057565b60405180910390f35b61039760048036038101906103929190612275565b6114de565b6040516103a491906123d7565b60405180910390f35b6103b56115bf565b005b6103bf6115d1565b6040516103cc9190612057565b60405180910390f35b6103dd6115d7565b6040516103ed94939291906123f9565b60405180910390f35b6103fe6115f5565b60405161040b919061249d565b60405180910390f35b61041c611619565b604051610429919061217d565b60405180910390f35b61043a611643565b6040516104479190612057565b60405180910390f35b61046a60048036038101906104659190612235565b61164d565b005b61047461172a565b005b610490600480360381019061048b9190612101565b611831565b6040516104a19594939291906124b8565b60405180910390f35b6104c460048036038101906104bf9190612275565b611891565b005b6104ce611917565b6040516104db9190612057565b60405180910390f35b6104fe60048036038101906104f99190612141565b6119c5565b60405161050b919061217d565b60405180910390f35b6000600380549050905090565b6000600260008473ffffffffffffffffffffffffffffffffffffffff1673ffffffffffffffffffffffffffffffffffffffff1681526020019081526020016000208054905082106105a7576040517f08c379a000000000000000000000000000000000000000000000000000000000815260040161059e90612568565b60405180910390fd5b6000600260008573ffffffffffffffffffffffffffffffffffffffff1673ffffffffffffffffffffffffffffffffffffffff16815260200190815260200160002083815481106105fa576105f9612588565b5b90600052602060002090600502016040518060a00160405290816000820154815260200160018201548152602001600282015481526020016003820160009054906101000a900460ff16151515158152602001600482015481525050905080606001511561066c5760009150506106f1565b60006201518082604001516106819190612615565b905060006064601484600001516106989190612646565b6106a29190612615565b905060006813c9647e25a994000083856080015186600001516106c59190612646565b6106cf9190612646565b6106d99190612615565b90508181116106e857806106ea565b815b9450505050505b92915050565b60006003805490508210610740576040517f08c379a0000000000000000000000000000000000000000000000000000000008152600401610737906126d4565b60405180910390fd5b6003828154811061075457610753612588565b5b9060005260206000200160009054906101000a900473ffffffffffffffffffffffffffffffffffffffff169050919050565b61078e611a04565b610796611a4a565b600260003373ffffffffffffffffffffffffffffffffffffffff1673ffffffffffffffffffffffffffffffffffffffff16815260200190815260200160002080549050811061081a576040517f08c379a000000000000000000000000000000000000000000000000000000000815260040161081190612568565b60405180910390fd5b6000600260003373ffffffffffffffffffffffffffffffffffffffff1673ffffffffffffffffffffffffffffffffffffffff168152602001908152602001600020828154811061086d5761086c612588565b5b906000526020600020906005020190508060030160009054906101000a900460ff16156108cf576040517f08c379a00000000000000000000000000000000000000000000000000000000081526004016108c690612740565b60405180910390fd5b806002015481600101546108e39190612760565b421015610925576040517f08c379a000000000000000000000000000000000000000000000000000000000815260040161091c906127e0565b60405180910390fd5b60006109313384610521565b905060008183600001546109459190612760565b9050807f000000000000000000000000000000000000000000000000000000000000000073ffffffffffffffffffffffffffffffffffffffff166370a08231306040518263ffffffff1660e01b81526004016109a1919061217d565b602060405180830381865afa1580156109be573d6000803e3d6000fd5b505050506040513d601f19601f820116820180604052508101906109e29190612815565b1015610a23576040517f08c379a0000000000000000000000000000000000000000000000000000000008152600401610a1a9061288e565b60405180910390fd5b60018360030160006101000a81548160ff0219169083151502179055508260000154600a6000828254610a5691906128ae565b9250508190555081600b6000828254610a6f9190612760565b92505081905550610ac133827f000000000000000000000000000000000000000000000000000000000000000073ffffffffffffffffffffffffffffffffffffffff16611a8b9092919063ffffffff16565b8183600001543373ffffffffffffffffffffffffffffffffffffffff167f7fc4727e062e336010f2c282598ef5f14facb3de68cf8195c2f23e1454b2b74e60405160405180910390a4505050610b15611b0a565b50565b610b20611b14565b82841015610b63576040517f08c379a0000000000000000000000000000000000000000000000000000000008152600401610b5a9061292e565b60405180910390fd5b6301e13380841115610baa576040517f08c379a0000000000000000000000000000000000000000000000000000000008152600401610ba19061299a565b60405180910390fd5b62015180831015610bf0576040517f08c379a0000000000000000000000000000000000000000000000000000000008152600401610be790612a06565b60405180910390fd5b836004600001819055508260046001018190555081600460020181905550806004600301819055508183857fcf0821634b30ea47aecd3debe34ba015bf7ee9734d798897999d5e3f66efe68a60405160405180910390a450505050565b610c55611b14565b610c5d611b9b565b610c65611bdb565b565b610c6f611a04565b610c77611b9b565b600260003373ffffffffffffffffffffffffffffffffffffffff1673ffffffffffffffffffffffffffffffffffffffff168152602001908152602001600020805490508110610cfb576040517f08c379a0000000000000000000000000000000000000000000000000000000008152600401610cf290612568565b60405180910390fd5b6000600260003373ffffffffffffffffffffffffffffffffffffffff1673ffffffffffffffffffffffffffffffffffffffff1681526020019081526020016000208281548110610d4e57610d4d612588565b5b906000526020600020906005020190508060030160009054906101000a900460ff1615610db0576040517f08c379a0000000000000000000000000000000000000000000000000000000008152600401610da790612740565b60405180910390fd5b60008160000154905060018260030160006101000a81548160ff02191690831515021790555080600a6000828254610de891906128ae565b92505081905550610e3a33827f000000000000000000000000000000000000000000000000000000000000000073ffffffffffffffffffffffffffffffffffffffff16611a8b9092919063ffffffff16565b803373ffffffffffffffffffffffffffffffffffffffff167f5fafa99d0643513820be26656b45130b01e1c03062e1266bf36f88cbd3bd969560405160405180910390a35050610e88611b0a565b50565b610e93611b14565b600a54811015610ed8576040517f08c379a0000000000000000000000000000000000000000000000000000000008152600401610ecf90612a98565b60405180910390fd5b80600c81905550807f77757d02247401cb1c3c0006fd2bb07c6c62d14f543c44e15eab5a342677bdda60405160405180910390a250565b600c5481565b6000600160149054906101000a900460ff16905090565b60085481565b610f3a611b14565b610f446000611c3e565b565b600b5481565b610f54611a04565b610f5c611a4a565b600082118015610f7157506004600201548211155b610fb0576040517f08c379a0000000000000000000000000000000000000000000000000000000008152600401610fa790612b04565b60405180910390fd5b6004600101548110158015610fca57506004600001548111155b611009576040517f08c379a000000000000000000000000000000000000000000000000000000000815260040161100090612b70565b60405180910390fd5b600460030154600260003373ffffffffffffffffffffffffffffffffffffffff1673ffffffffffffffffffffffffffffffffffffffff1681526020019081526020016000208054905010611092576040517f08c379a000000000000000000000000000000000000000000000000000000000815260040161108990612bdc565b60405180910390fd5b600c5482600a546110a39190612760565b11156110e4576040517f08c379a00000000000000000000000000000000000000000000000000000000081526004016110db90612c48565b60405180910390fd5b60006301e133808210156110fa576008546110fe565b6009545b905060007f000000000000000000000000000000000000000000000000000000000000000073ffffffffffffffffffffffffffffffffffffffff166370a08231306040518263ffffffff1660e01b815260040161115b919061217d565b602060405180830381865afa158015611178573d6000803e3d6000fd5b505050506040513d601f19601f8201168201806040525081019061119c9190612815565b90506111eb3330867f000000000000000000000000000000000000000000000000000000000000000073ffffffffffffffffffffffffffffffffffffffff16611d04909392919063ffffffff16565b83817f000000000000000000000000000000000000000000000000000000000000000073ffffffffffffffffffffffffffffffffffffffff166370a08231306040518263ffffffff1660e01b8152600401611246919061217d565b602060405180830381865afa158015611263573d6000803e3d6000fd5b505050506040513d601f19601f820116820180604052508101906112879190612815565b61129191906128ae565b146112d1576040517f08c379a00000000000000000000000000000000000000000000000000000000081526004016112c890612cb4565b60405180910390fd5b60006040518060a00160405280868152602001428152602001858152602001600015158152602001848152509050600260003373ffffffffffffffffffffffffffffffffffffffff1673ffffffffffffffffffffffffffffffffffffffff16815260200190815260200160002081908060018154018082558091505060019003906000526020600020906005020160009091909190915060008201518160000155602082015181600101556040820151816002015560608201518160030160006101000a81548160ff02191690831515021790555060808201518160040155505084600a60008282546113c49190612760565b925050819055506001600260003373ffffffffffffffffffffffffffffffffffffffff1673ffffffffffffffffffffffffffffffffffffffff1681526020019081526020016000208054905003611479576003339080600181540180825580915050600190039060005260206000200160009091909190916101000a81548173ffffffffffffffffffffffffffffffffffffffff021916908373ffffffffffffffffffffffffffffffffffffffff1602179055505b83853373ffffffffffffffffffffffffffffffffffffffff167fb4caaf29adda3eefee3ad552a8e85058589bf834c7466cae4ee58787f70589ed866040516114c19190612057565b60405180910390a45050506114d4611b0a565b5050565b600a5481565b6060600260008373ffffffffffffffffffffffffffffffffffffffff1673ffffffffffffffffffffffffffffffffffffffff168152602001908152602001600020805480602002602001604051908101604052809291908181526020016000905b828210156115b457838290600052602060002090600502016040518060a00160405290816000820154815260200160018201548152602001600282015481526020016003820160009054906101000a900460ff161515151581526020016004820154815250508152602001906001019061153f565b505050509050919050565b6115c7611b14565b6115cf611d86565b565b60095481565b60048060000154908060010154908060020154908060030154905084565b7f000000000000000000000000000000000000000000000000000000000000000081565b6000600160009054906101000a900473ffffffffffffffffffffffffffffffffffffffff16905090565b6000600a54905090565b611655611b14565b670429d069189e00008111156116a0576040517f08c379a000000000000000000000000000000000000000000000000000000000815260040161169790612d20565b60405180910390fd5b6658d15e176280008211156116ea576040517f08c379a00000000000000000000000000000000000000000000000000000000081526004016116e190612d8c565b60405180910390fd5b816008819055508060098190555080827fd2d659d197cf77652feb866d2a49b71684b0e7b0d92bde0b26163f77e2e25a2d60405160405180910390a35050565b611732611b14565b61173a611a4a565b611742611d86565b600061174c611917565b905060008111611791576040517f08c379a000000000000000000000000000000000000000000000000000000000815260040161178890612df8565b60405180910390fd5b6117e361179c611619565b827f000000000000000000000000000000000000000000000000000000000000000073ffffffffffffffffffffffffffffffffffffffff16611a8b9092919063ffffffff16565b806117ec611619565b73ffffffffffffffffffffffffffffffffffffffff167f5fafa99d0643513820be26656b45130b01e1c03062e1266bf36f88cbd3bd969560405160405180910390a350565b6002602052816000526040600020818154811061184d57600080fd5b9060005260206000209060050201600091509150508060000154908060010154908060020154908060030160009054906101000a900460ff16908060040154905085565b611899611b14565b600073ffffffffffffffffffffffffffffffffffffffff168173ffffffffffffffffffffffffffffffffffffffff160361190b5760006040517f1e4fbdf7000000000000000000000000000000000000000000000000000000008152600401611902919061217d565b60405180910390fd5b61191481611c3e565b50565b6000600a547f000000000000000000000000000000000000000000000000000000000000000073ffffffffffffffffffffffffffffffffffffffff166370a08231306040518263ffffffff1660e01b8152600401611975919061217d565b602060405180830381865afa158015611992573d6000803e3d6000fd5b505050506040513d601f19601f820116820180604052508101906119b69190612815565b6119c091906128ae565b905090565b600381815481106119d557600080fd5b906000526020600020016000915054906101000a900473ffffffffffffffffffffffffffffffffffffffff1681565b600260005403611a40576040517f3ee5aeb500000000000000000000000000000000000000000000000000000000815260040160405180910390fd5b6002600081905550565b611a52610f15565b15611a89576040517fd93c066500000000000000000000000000000000000000000000000000000000815260040160405180910390fd5b565b611b05838473ffffffffffffffffffffffffffffffffffffffff1663a9059cbb8585604051602401611abe929190612e18565b604051602081830303815290604052915060e01b6020820180517bffffffffffffffffffffffffffffffffffffffffffffffffffffffff8381831617835250505050611de8565b505050565b6001600081905550565b611b1c611e7f565b73ffffffffffffffffffffffffffffffffffffffff16611b3a611619565b73ffffffffffffffffffffffffffffffffffffffff1614611b9957611b5d611e7f565b6040517f118cdaa7000000000000000000000000000000000000000000000000000000008152600401611b90919061217d565b60405180910390fd5b565b611ba3610f15565b611bd9576040517f8dfc202b00000000000000000000000000000000000000000000000000000000815260040160405180910390fd5b565b611be3611b9b565b6000600160146101000a81548160ff0219169083151502179055507f5db9ee0a495bf2e6ff9c91a7834c1ba4fdd244a5e8aa4e537bd38aeae4b073aa611c27611e7f565b604051611c34919061217d565b60405180910390a1565b6000600160009054906101000a900473ffffffffffffffffffffffffffffffffffffffff16905081600160006101000a81548173ffffffffffffffffffffffffffffffffffffffff021916908373ffffffffffffffffffffffffffffffffffffffff1602179055508173ffffffffffffffffffffffffffffffffffffffff168173ffffffffffffffffffffffffffffffffffffffff167f8be0079c531659141344cd1fd0a4f28419497f9722a3daafe3b4186f6b6457e060405160405180910390a35050565b611d80848573ffffffffffffffffffffffffffffffffffffffff166323b872dd868686604051602401611d3993929190612e41565b604051602081830303815290604052915060e01b6020820180517bffffffffffffffffffffffffffffffffffffffffffffffffffffffff8381831617835250505050611de8565b50505050565b611d8e611a4a565b60018060146101000a81548160ff0219169083151502179055507f62e78cea01bee320cd4e420270b5ea74000d11b0c9f74754ebdbfc544b05a258611dd1611e7f565b604051611dde919061217d565b60405180910390a1565b6000611e13828473ffffffffffffffffffffffffffffffffffffffff16611e8790919063ffffffff16565b90506000815114158015611e38575080806020019051810190611e369190612ea4565b155b15611e7a57826040517f5274afe7000000000000000000000000000000000000000000000000000000008152600401611e71919061217d565b60405180910390fd5b505050565b600033905090565b6060611e9583836000611e9d565b905092915050565b606081471015611ee457306040517fcd786059000000000000000000000000000000000000000000000000000000008152600401611edb919061217d565b60405180910390fd5b6000808573ffffffffffffffffffffffffffffffffffffffff168486604051611f0d9190612f42565b60006040518083038185875af1925050503d8060008114611f4a576040519150601f19603f3d011682016040523d82523d6000602084013e611f4f565b606091505b5091509150611f5f868383611f6a565b925050509392505050565b606082611f7f57611f7a82611ff9565b611ff1565b60008251148015611fa7575060008473ffffffffffffffffffffffffffffffffffffffff163b145b15611fe957836040517f9996b315000000000000000000000000000000000000000000000000000000008152600401611fe0919061217d565b60405180910390fd5b819050611ff2565b5b9392505050565b60008151111561200c5780518082602001fd5b6040517f1425ea4200000000000000000000000000000000000000000000000000000000815260040160405180910390fd5b6000819050919050565b6120518161203e565b82525050565b600060208201905061206c6000830184612048565b92915050565b600080fd5b600073ffffffffffffffffffffffffffffffffffffffff82169050919050565b60006120a282612077565b9050919050565b6120b281612097565b81146120bd57600080fd5b50565b6000813590506120cf816120a9565b92915050565b6120de8161203e565b81146120e957600080fd5b50565b6000813590506120fb816120d5565b92915050565b6000806040838503121561211857612117612072565b5b6000612126858286016120c0565b9250506020612137858286016120ec565b9150509250929050565b60006020828403121561215757612156612072565b5b6000612165848285016120ec565b91505092915050565b61217781612097565b82525050565b6000602082019050612192600083018461216e565b92915050565b600080600080608085870312156121b2576121b1612072565b5b60006121c0878288016120ec565b94505060206121d1878288016120ec565b93505060406121e2878288016120ec565b92505060606121f3878288016120ec565b91505092959194509250565b60008115159050919050565b612214816121ff565b82525050565b600060208201905061222f600083018461220b565b92915050565b6000806040838503121561224c5761224b612072565b5b600061225a858286016120ec565b925050602061226b858286016120ec565b9150509250929050565b60006020828403121561228b5761228a612072565b5b6000612299848285016120c0565b91505092915050565b600081519050919050565b600082825260208201905092915050565b6000819050602082019050919050565b6122d78161203e565b82525050565b6122e6816121ff565b82525050565b60a08201600082015161230260008501826122ce565b50602082015161231560208501826122ce565b50604082015161232860408501826122ce565b50606082015161233b60608501826122dd565b50608082015161234e60808501826122ce565b50505050565b600061236083836122ec565b60a08301905092915050565b6000602082019050919050565b6000612384826122a2565b61238e81856122ad565b9350612399836122be565b8060005b838110156123ca5781516123b18882612354565b97506123bc8361236c565b92505060018101905061239d565b5085935050505092915050565b600060208201905081810360008301526123f18184612379565b905092915050565b600060808201905061240e6000830187612048565b61241b6020830186612048565b6124286040830185612048565b6124356060830184612048565b95945050505050565b6000819050919050565b600061246361245e61245984612077565b61243e565b612077565b9050919050565b600061247582612448565b9050919050565b60006124878261246a565b9050919050565b6124978161247c565b82525050565b60006020820190506124b2600083018461248e565b92915050565b600060a0820190506124cd6000830188612048565b6124da6020830187612048565b6124e76040830186612048565b6124f4606083018561220b565b6125016080830184612048565b9695505050505050565b600082825260208201905092915050565b7f496e76616c6964207374616b6520696e64657800000000000000000000000000600082015250565b600061255260138361250b565b915061255d8261251c565b602082019050919050565b6000602082019050818103600083015261258181612545565b9050919050565b7f4e487b7100000000000000000000000000000000000000000000000000000000600052603260045260246000fd5b7f4e487b7100000000000000000000000000000000000000000000000000000000600052601260045260246000fd5b7f4e487b7100000000000000000000000000000000000000000000000000000000600052601160045260246000fd5b60006126208261203e565b915061262b8361203e565b92508261263b5761263a6125b7565b5b828204905092915050565b60006126518261203e565b915061265c8361203e565b925082820261266a8161203e565b91508282048414831517612681576126806125e6565b5b5092915050565b7f496e76616c696420696e64657800000000000000000000000000000000000000600082015250565b60006126be600d8361250b565b91506126c982612688565b602082019050919050565b600060208201905081810360008301526126ed816126b1565b9050919050565b7f5374616b6520616c726561647920636c61696d65640000000000000000000000600082015250565b600061272a60158361250b565b9150612735826126f4565b602082019050919050565b600060208201905081810360008301526127598161271d565b9050919050565b600061276b8261203e565b91506127768361203e565b925082820190508082111561278e5761278d6125e6565b5b92915050565b7f5374616b696e6720706572696f64206e6f7420796574206f7665720000000000600082015250565b60006127ca601b8361250b565b91506127d582612794565b602082019050919050565b600060208201905081810360008301526127f9816127bd565b9050919050565b60008151905061280f816120d5565b92915050565b60006020828403121561282b5761282a612072565b5b600061283984828501612800565b91505092915050565b7f496e73756666696369656e7420636f6e74726163742062616c616e6365000000600082015250565b6000612878601d8361250b565b915061288382612842565b602082019050919050565b600060208201905081810360008301526128a78161286b565b9050919050565b60006128b98261203e565b91506128c48361203e565b92508282039050818111156128dc576128db6125e6565b5b92915050565b7f496e76616c6964206475726174696f6e206c696d697473000000000000000000600082015250565b600061291860178361250b565b9150612923826128e2565b602082019050919050565b600060208201905081810360008301526129478161290b565b9050919050565b7f4d6178206475726174696f6e20746f6f20686967680000000000000000000000600082015250565b600061298460158361250b565b915061298f8261294e565b602082019050919050565b600060208201905081810360008301526129b381612977565b9050919050565b7f4d696e206475726174696f6e20746f6f206c6f77000000000000000000000000600082015250565b60006129f060148361250b565b91506129fb826129ba565b602082019050919050565b60006020820190508181036000830152612a1f816129e3565b9050919050565b7f43616e6e6f74206265206c657373207468616e2063757272656e7420746f746160008201527f6c207374616b6564000000000000000000000000000000000000000000000000602082015250565b6000612a8260288361250b565b9150612a8d82612a26565b604082019050919050565b60006020820190508181036000830152612ab181612a75565b9050919050565b7f496e76616c696420616d6f756e74000000000000000000000000000000000000600082015250565b6000612aee600e8361250b565b9150612af982612ab8565b602082019050919050565b60006020820190508181036000830152612b1d81612ae1565b9050919050565b7f496e76616c6964206475726174696f6e00000000000000000000000000000000600082015250565b6000612b5a60108361250b565b9150612b6582612b24565b602082019050919050565b60006020820190508181036000830152612b8981612b4d565b9050919050565b7f4d6178207374616b657320726561636865640000000000000000000000000000600082015250565b6000612bc660128361250b565b9150612bd182612b90565b602082019050919050565b60006020820190508181036000830152612bf581612bb9565b9050919050565b7f576f756c6420657863656564206d617820746f74616c207374616b6500000000600082015250565b6000612c32601c8361250b565b9150612c3d82612bfc565b602082019050919050565b60006020820190508181036000830152612c6181612c25565b9050919050565b7f5472616e7366657220616d6f756e74206d69736d617463680000000000000000600082015250565b6000612c9e60188361250b565b9150612ca982612c68565b602082019050919050565b60006020820190508181036000830152612ccd81612c91565b9050919050565b7f416e6e75616c204150522063616e6e6f74206578636565642033302500000000600082015250565b6000612d0a601c8361250b565b9150612d1582612cd4565b602082019050919050565b60006020820190508181036000830152612d3981612cfd565b9050919050565b7f4d6f6e74686c79204150522063616e6e6f742065786365656420322e35250000600082015250565b6000612d76601e8361250b565b9150612d8182612d40565b602082019050919050565b60006020820190508181036000830152612da581612d69565b9050919050565b7f4e6f20617661696c61626c652072657761726473000000000000000000000000600082015250565b6000612de260148361250b565b9150612ded82612dac565b602082019050919050565b60006020820190508181036000830152612e1181612dd5565b9050919050565b6000604082019050612e2d600083018561216e565b612e3a6020830184612048565b9392505050565b6000606082019050612e56600083018661216e565b612e63602083018561216e565b612e706040830184612048565b949350505050565b612e81816121ff565b8114612e8c57600080fd5b50565b600081519050612e9e81612e78565b92915050565b600060208284031215612eba57612eb9612072565b5b6000612ec884828501612e8f565b91505092915050565b600081519050919050565b600081905092915050565b60005b83811015612f05578082015181840152602081019050612eea565b60008484015250505050565b6000612f1c82612ed1565b612f268185612edc565b9350612f36818560208601612ee7565b80840191505092915050565b6000612f4e8284612f11565b91508190509291505056fea2646970667358221220ca83cce604d84b52b0a09aa4c086d98f46a26dec9e10b1cf6a5f4ac50599263164736f6c63430008140033",
  "linkReferences": {},
  "deployedLinkReferences": {}
}