{
  "_format": "hh-sol-artifact-1",
  "contractName": "StakingContractV2",
  "sourceName": "contracts/StakingBurritoV2.sol",
  "abi": [
    {
      "inputs": [
        {
          "internalType": "address",
          "name": "_burritoTokenAddress",
          "type": "address"
        }
      ],
      "stateMutability": "nonpayable",
      "type": "constructor"
    },
    {
      "inputs": [
        {
          "internalType": "address",
          "name": "owner",
          "type": "address"
        }
      ],
      "name": "OwnableInvalidOwner",
      "type": "error"
    },
    {
      "inputs": [
        {
          "internalType": "address",
          "name": "account",
          "type": "address"
        }
      ],
      "name": "OwnableUnauthorizedAccount",
      "type": "error"
    },
    {
      "inputs": [],
      "name": "ReentrancyGuardReentrantCall",
      "type": "error"
    },
    {
      "anonymous": false,
      "inputs": [
        {
          "indexed": true,
          "internalType": "address",
          "name": "owner",
          "type": "address"
        },
        {
          "indexed": false,
          "internalType": "uint256",
          "name": "amount",
          "type": "uint256"
        }
      ],
      "name": "EmergencyWithdraw",
      "type": "event"
    },
    {
      "anonymous": false,
      "inputs": [
        {
          "indexed": true,
          "internalType": "address",
          "name": "previousOwner",
          "type": "address"
        },
        {
          "indexed": true,
          "internalType": "address",
          "name": "newOwner",
          "type": "address"
        }
      ],
      "name": "OwnershipTransferred",
      "type": "event"
    },
    {
      "anonymous": false,
      "inputs": [
        {
          "indexed": true,
          "internalType": "address",
          "name": "user",
          "type": "address"
        },
        {
          "indexed": false,
          "internalType": "uint256",
          "name": "amount",
          "type": "uint256"
        },
        {
          "indexed": false,
          "internalType": "uint256",
          "name": "duration",
          "type": "uint256"
        }
      ],
      "name": "Staked",
      "type": "event"
    },
    {
      "anonymous": false,
      "inputs": [
        {
          "indexed": true,
          "internalType": "address",
          "name": "user",
          "type": "address"
        },
        {
          "indexed": false,
          "internalType": "uint256",
          "name": "amount",
          "type": "uint256"
        },
        {
          "indexed": false,
          "internalType": "uint256",
          "name": "reward",
          "type": "uint256"
        }
      ],
      "name": "Unstaked",
      "type": "event"
    },
    {
      "inputs": [],
      "name": "ONE_MONTH",
      "outputs": [
        {
          "internalType": "uint256",
          "name": "",
          "type": "uint256"
        }
      ],
      "stateMutability": "view",
      "type": "function"
    },
    {
      "inputs": [],
      "name": "ONE_YEAR",
      "outputs": [
        {
          "internalType": "uint256",
          "name": "",
          "type": "uint256"
        }
      ],
      "stateMutability": "view",
      "type": "function"
    },
    {
      "inputs": [],
      "name": "annualAPR",
      "outputs": [
        {
          "internalType": "uint256",
          "name": "",
          "type": "uint256"
        }
      ],
      "stateMutability": "view",
      "type": "function"
    },
    {
      "inputs": [],
      "name": "burritoToken",
      "outputs": [
        {
          "internalType": "contract IERC20",
          "name": "",
          "type": "address"
        }
      ],
      "stateMutability": "view",
      "type": "function"
    },
    {
      "inputs": [
        {
          "internalType": "address",
          "name": "_user",
          "type": "address"
        }
      ],
      "name": "calculateReward",
      "outputs": [
        {
          "internalType": "uint256",
          "name": "",
          "type": "uint256"
        }
      ],
      "stateMutability": "view",
      "type": "function"
    },
    {
      "inputs": [
        {
          "internalType": "address",
          "name": "",
          "type": "address"
        }
      ],
      "name": "currentStakes",
      "outputs": [
        {
          "internalType": "uint256",
          "name": "amount",
          "type": "uint256"
        },
        {
          "internalType": "uint256",
          "name": "timestamp",
          "type": "uint256"
        },
        {
          "internalType": "uint256",
          "name": "duration",
          "type": "uint256"
        },
        {
          "internalType": "bool",
          "name": "claimed",
          "type": "bool"
        }
      ],
      "stateMutability": "view",
      "type": "function"
    },
    {
      "inputs": [
        {
          "internalType": "address",
          "name": "_user",
          "type": "address"
        }
      ],
      "name": "getStakeHistory",
      "outputs": [
        {
          "components": [
            {
              "internalType": "uint256",
              "name": "amount",
              "type": "uint256"
            },
            {
              "internalType": "uint256",
              "name": "timestamp",
              "type": "uint256"
            },
            {
              "internalType": "uint256",
              "name": "duration",
              "type": "uint256"
            },
            {
              "internalType": "bool",
              "name": "claimed",
              "type": "bool"
            }
          ],
          "internalType": "struct StakingContractV2.Stake[]",
          "name": "",
          "type": "tuple[]"
        }
      ],
      "stateMutability": "view",
      "type": "function"
    },
    {
      "inputs": [],
      "name": "killSwitch",
      "outputs": [],
      "stateMutability": "nonpayable",
      "type": "function"
    },
    {
      "inputs": [],
      "name": "monthlyAPR",
      "outputs": [
        {
          "internalType": "uint256",
          "name": "",
          "type": "uint256"
        }
      ],
      "stateMutability": "view",
      "type": "function"
    },
    {
      "inputs": [],
      "name": "owner",
      "outputs": [
        {
          "internalType": "address",
          "name": "",
          "type": "address"
        }
      ],
      "stateMutability": "view",
      "type": "function"
    },
    {
      "inputs": [],
      "name": "renounceOwnership",
      "outputs": [],
      "stateMutability": "nonpayable",
      "type": "function"
    },
    {
      "inputs": [
        {
          "internalType": "uint256",
          "name": "_apr",
          "type": "uint256"
        }
      ],
      "name": "setAnnualAPR",
      "outputs": [],
      "stateMutability": "nonpayable",
      "type": "function"
    },
    {
      "inputs": [
        {
          "internalType": "uint256",
          "name": "_apr",
          "type": "uint256"
        }
      ],
      "name": "setMonthlyAPR",
      "outputs": [],
      "stateMutability": "nonpayable",
      "type": "function"
    },
    {
      "inputs": [
        {
          "internalType": "uint256",
          "name": "_amount",
          "type": "uint256"
        },
        {
          "internalType": "uint256",
          "name": "_duration",
          "type": "uint256"
        }
      ],
      "name": "stake",
      "outputs": [],
      "stateMutability": "nonpayable",
      "type": "function"
    },
    {
      "inputs": [
        {
          "internalType": "address",
          "name": "",
          "type": "address"
        },
        {
          "internalType": "uint256",
          "name": "",
          "type": "uint256"
        }
      ],
      "name": "stakeHistory",
      "outputs": [
        {
          "internalType": "uint256",
          "name": "amount",
          "type": "uint256"
        },
        {
          "internalType": "uint256",
          "name": "timestamp",
          "type": "uint256"
        },
        {
          "internalType": "uint256",
          "name": "duration",
          "type": "uint256"
        },
        {
          "internalType": "bool",
          "name": "claimed",
          "type": "bool"
        }
      ],
      "stateMutability": "view",
      "type": "function"
    },
    {
      "inputs": [
        {
          "internalType": "address",
          "name": "newOwner",
          "type": "address"
        }
      ],
      "name": "transferOwnership",
      "outputs": [],
      "stateMutability": "nonpayable",
      "type": "function"
    },
    {
      "inputs": [],
      "name": "unstake",
      "outputs": [],
      "stateMutability": "nonpayable",
      "type": "function"
    }
  ],
  "bytecode": "0x608060405266271471148780006005556702bc985aedb500006006553480156200002857600080fd5b5060405162001e1a38038062001e1a83398181016040528101906200004e919062000256565b336001600081905550600073ffffffffffffffffffffffffffffffffffffffff168173ffffffffffffffffffffffffffffffffffffffff1603620000cc5760006040517f1e4fbdf7000000000000000000000000000000000000000000000000000000008152600401620000c3919062000299565b60405180910390fd5b620000dd816200012660201b60201c565b5080600260006101000a81548173ffffffffffffffffffffffffffffffffffffffff021916908373ffffffffffffffffffffffffffffffffffffffff16021790555050620002b6565b6000600160009054906101000a900473ffffffffffffffffffffffffffffffffffffffff16905081600160006101000a81548173ffffffffffffffffffffffffffffffffffffffff021916908373ffffffffffffffffffffffffffffffffffffffff1602179055508173ffffffffffffffffffffffffffffffffffffffff168173ffffffffffffffffffffffffffffffffffffffff167f8be0079c531659141344cd1fd0a4f28419497f9722a3daafe3b4186f6b6457e060405160405180910390a35050565b600080fd5b600073ffffffffffffffffffffffffffffffffffffffff82169050919050565b60006200021e82620001f1565b9050919050565b620002308162000211565b81146200023c57600080fd5b50565b600081519050620002508162000225565b92915050565b6000602082840312156200026f576200026e620001ec565b5b60006200027f848285016200023f565b91505092915050565b620002938162000211565b82525050565b6000602082019050620002b0600083018462000288565b92915050565b611b5480620002c66000396000f3fe608060405234801561001057600080fd5b506004361061010b5760003560e01c80638da5cb5b116100a2578063b81c21e011610071578063b81c21e014610261578063d82e39621461027d578063f2fde38b146102ad578063f72be91a146102c9578063f85d4282146102fc5761010b565b80638da5cb5b146101d6578063a9b66fdb146101f4578063ada1469814610224578063b66d82521461022e5761010b565b8063715018a6116100de578063715018a6146101745780637b0472f01461017e578063854e518a1461019a57806386940105146101b85761010b565b806316d3bfbb1461011057806320988cef1461012e5780632def66201461014c57806361a0c76414610156575b600080fd5b610118610318565b60405161012591906111b8565b60405180910390f35b61013661031e565b60405161014391906111b8565b60405180910390f35b610154610323565b005b61015e610675565b60405161016b91906111b8565b60405180910390f35b61017c61067b565b005b61019860048036038101906101939190611204565b61068f565b005b6101a2610a64565b6040516101af91906111b8565b60405180910390f35b6101c0610a6a565b6040516101cd91906112c3565b60405180910390f35b6101de610a90565b6040516101eb91906112ff565b60405180910390f35b61020e60048036038101906102099190611346565b610aba565b60405161021b91906114a1565b60405180910390f35b61022c610b91565b005b610248600480360381019061024391906114c3565b610dba565b6040516102589493929190611512565b60405180910390f35b61027b60048036038101906102769190611557565b610e14565b005b61029760048036038101906102929190611346565b610e26565b6040516102a491906111b8565b60405180910390f35b6102c760048036038101906102c29190611346565b610f25565b005b6102e360048036038101906102de9190611346565b610fab565b6040516102f39493929190611512565b60405180910390f35b61031660048036038101906103119190611557565b610fe8565b005b61016d81565b601e81565b61032b610ffa565b6000600360003373ffffffffffffffffffffffffffffffffffffffff1673ffffffffffffffffffffffffffffffffffffffff168152602001908152602001600020905060008160010154116103b5576040517f08c379a00000000000000000000000000000000000000000000000000000000081526004016103ac906115e1565b60405180910390fd5b6201518081600201546103c89190611630565b81600101546103d79190611672565b421015610419576040517f08c379a0000000000000000000000000000000000000000000000000000000008152600401610410906116f2565b60405180910390fd5b600061042433610e26565b905060008183600001546104389190611672565b905080600260009054906101000a900473ffffffffffffffffffffffffffffffffffffffff1673ffffffffffffffffffffffffffffffffffffffff166370a08231306040518263ffffffff1660e01b815260040161049691906112ff565b602060405180830381865afa1580156104b3573d6000803e3d6000fd5b505050506040513d601f19601f820116820180604052508101906104d79190611727565b1015610518576040517f08c379a000000000000000000000000000000000000000000000000000000000815260040161050f906117a0565b60405180910390fd5b60018360030160006101000a81548160ff021916908315150217905550600260009054906101000a900473ffffffffffffffffffffffffffffffffffffffff1673ffffffffffffffffffffffffffffffffffffffff1663a9059cbb33836040518363ffffffff1660e01b81526004016105929291906117c0565b6020604051808303816000875af11580156105b1573d6000803e3d6000fd5b505050506040513d601f19601f820116820180604052508101906105d59190611815565b610614576040517f08c379a000000000000000000000000000000000000000000000000000000000815260040161060b9061188e565b60405180910390fd5b3373ffffffffffffffffffffffffffffffffffffffff167f7fc4727e062e336010f2c282598ef5f14facb3de68cf8195c2f23e1454b2b74e8460000154846040516106609291906118ae565b60405180910390a2505050610673611040565b565b60055481565b61068361104a565b61068d60006110d1565b565b610697610ffa565b601e8114806106a7575061016d81145b6106e6576040517f08c379a00000000000000000000000000000000000000000000000000000000081526004016106dd90611923565b60405180910390fd5b60008211610729576040517f08c379a00000000000000000000000000000000000000000000000000000000081526004016107209061198f565b60405180910390fd5b600260009054906101000a900473ffffffffffffffffffffffffffffffffffffffff1673ffffffffffffffffffffffffffffffffffffffff166323b872dd3330856040518463ffffffff1660e01b8152600401610788939291906119af565b6020604051808303816000875af11580156107a7573d6000803e3d6000fd5b505050506040513d601f19601f820116820180604052508101906107cb9190611815565b506000600360003373ffffffffffffffffffffffffffffffffffffffff1673ffffffffffffffffffffffffffffffffffffffff16815260200190815260200160002090506000816001015411801561083257508060030160009054906101000a900460ff16155b156108da5760008382600001546108499190611672565b9050600081854261085a9190611630565b8460000154856001015461086e9190611630565b6108789190611672565b6108829190611a15565b90508183600001819055508083600101819055508185856108a39190611630565b846000015485600201546108b79190611630565b6108c19190611672565b6108cb9190611a15565b83600201819055505050610913565b82816000018190555042816001018190555081816002018190555060008160030160006101000a81548160ff0219169083151502179055505b600460003373ffffffffffffffffffffffffffffffffffffffff1673ffffffffffffffffffffffffffffffffffffffff168152602001908152602001600020600360003373ffffffffffffffffffffffffffffffffffffffff1673ffffffffffffffffffffffffffffffffffffffff16815260200190815260200160002090806001815401808255809150506001900390600052602060002090600402016000909190919091506000820154816000015560018201548160010155600282015481600201556003820160009054906101000a900460ff168160030160006101000a81548160ff02191690831515021790555050503373ffffffffffffffffffffffffffffffffffffffff167f1449c6dd7851abc30abf37f57715f492010519147cc2652fbc38202c18a6ee908484604051610a4f9291906118ae565b60405180910390a250610a60611040565b5050565b60065481565b600260009054906101000a900473ffffffffffffffffffffffffffffffffffffffff1681565b6000600160009054906101000a900473ffffffffffffffffffffffffffffffffffffffff16905090565b6060600460008373ffffffffffffffffffffffffffffffffffffffff1673ffffffffffffffffffffffffffffffffffffffff168152602001908152602001600020805480602002602001604051908101604052809291908181526020016000905b82821015610b8657838290600052602060002090600402016040518060800160405290816000820154815260200160018201548152602001600282015481526020016003820160009054906101000a900460ff16151515158152505081526020019060010190610b1b565b505050509050919050565b610b9961104a565b6000600260009054906101000a900473ffffffffffffffffffffffffffffffffffffffff1673ffffffffffffffffffffffffffffffffffffffff166370a08231306040518263ffffffff1660e01b8152600401610bf691906112ff565b602060405180830381865afa158015610c13573d6000803e3d6000fd5b505050506040513d601f19601f82011682018060405250810190610c379190611727565b905060008111610c7c576040517f08c379a0000000000000000000000000000000000000000000000000000000008152600401610c7390611a92565b60405180910390fd5b600260009054906101000a900473ffffffffffffffffffffffffffffffffffffffff1673ffffffffffffffffffffffffffffffffffffffff1663a9059cbb610cc2610a90565b836040518363ffffffff1660e01b8152600401610ce09291906117c0565b6020604051808303816000875af1158015610cff573d6000803e3d6000fd5b505050506040513d601f19601f82011682018060405250810190610d239190611815565b610d62576040517f08c379a0000000000000000000000000000000000000000000000000000000008152600401610d5990611afe565b60405180910390fd5b610d6a610a90565b73ffffffffffffffffffffffffffffffffffffffff167f5fafa99d0643513820be26656b45130b01e1c03062e1266bf36f88cbd3bd969582604051610daf91906111b8565b60405180910390a250565b60046020528160005260406000208181548110610dd657600080fd5b9060005260206000209060040201600091509150508060000154908060010154908060020154908060030160009054906101000a900460ff16905084565b610e1c61104a565b8060068190555050565b600080600360008473ffffffffffffffffffffffffffffffffffffffff1673ffffffffffffffffffffffffffffffffffffffff1681526020019081526020016000206040518060800160405290816000820154815260200160018201548152602001600282015481526020016003820160009054906101000a900460ff16151515158152505090506000816020015103610ec4576000915050610f20565b6000816040015190506000601e8214610edf57600654610ee3565b6005545b905060006813c9647e25a994000083838660000151610f029190611630565b610f0c9190611630565b610f169190611a15565b9050809450505050505b919050565b610f2d61104a565b600073ffffffffffffffffffffffffffffffffffffffff168173ffffffffffffffffffffffffffffffffffffffff1603610f9f5760006040517f1e4fbdf7000000000000000000000000000000000000000000000000000000008152600401610f9691906112ff565b60405180910390fd5b610fa8816110d1565b50565b60036020528060005260406000206000915090508060000154908060010154908060020154908060030160009054906101000a900460ff16905084565b610ff061104a565b8060058190555050565b600260005403611036576040517f3ee5aeb500000000000000000000000000000000000000000000000000000000815260040160405180910390fd5b6002600081905550565b6001600081905550565b611052611197565b73ffffffffffffffffffffffffffffffffffffffff16611070610a90565b73ffffffffffffffffffffffffffffffffffffffff16146110cf57611093611197565b6040517f118cdaa70000000000000000000000000000000000000000000000000000000081526004016110c691906112ff565b60405180910390fd5b565b6000600160009054906101000a900473ffffffffffffffffffffffffffffffffffffffff16905081600160006101000a81548173ffffffffffffffffffffffffffffffffffffffff021916908373ffffffffffffffffffffffffffffffffffffffff1602179055508173ffffffffffffffffffffffffffffffffffffffff168173ffffffffffffffffffffffffffffffffffffffff167f8be0079c531659141344cd1fd0a4f28419497f9722a3daafe3b4186f6b6457e060405160405180910390a35050565b600033905090565b6000819050919050565b6111b28161119f565b82525050565b60006020820190506111cd60008301846111a9565b92915050565b600080fd5b6111e18161119f565b81146111ec57600080fd5b50565b6000813590506111fe816111d8565b92915050565b6000806040838503121561121b5761121a6111d3565b5b6000611229858286016111ef565b925050602061123a858286016111ef565b9150509250929050565b600073ffffffffffffffffffffffffffffffffffffffff82169050919050565b6000819050919050565b600061128961128461127f84611244565b611264565b611244565b9050919050565b600061129b8261126e565b9050919050565b60006112ad82611290565b9050919050565b6112bd816112a2565b82525050565b60006020820190506112d860008301846112b4565b92915050565b60006112e982611244565b9050919050565b6112f9816112de565b82525050565b600060208201905061131460008301846112f0565b92915050565b611323816112de565b811461132e57600080fd5b50565b6000813590506113408161131a565b92915050565b60006020828403121561135c5761135b6111d3565b5b600061136a84828501611331565b91505092915050565b600081519050919050565b600082825260208201905092915050565b6000819050602082019050919050565b6113a88161119f565b82525050565b60008115159050919050565b6113c3816113ae565b82525050565b6080820160008201516113df600085018261139f565b5060208201516113f2602085018261139f565b506040820151611405604085018261139f565b50606082015161141860608501826113ba565b50505050565b600061142a83836113c9565b60808301905092915050565b6000602082019050919050565b600061144e82611373565b611458818561137e565b93506114638361138f565b8060005b8381101561149457815161147b888261141e565b975061148683611436565b925050600181019050611467565b5085935050505092915050565b600060208201905081810360008301526114bb8184611443565b905092915050565b600080604083850312156114da576114d96111d3565b5b60006114e885828601611331565b92505060206114f9858286016111ef565b9150509250929050565b61150c816113ae565b82525050565b600060808201905061152760008301876111a9565b61153460208301866111a9565b61154160408301856111a9565b61154e6060830184611503565b95945050505050565b60006020828403121561156d5761156c6111d3565b5b600061157b848285016111ef565b91505092915050565b600082825260208201905092915050565b7f4e6f20746f6b656e73207374616b656400000000000000000000000000000000600082015250565b60006115cb601083611584565b91506115d682611595565b602082019050919050565b600060208201905081810360008301526115fa816115be565b9050919050565b7f4e487b7100000000000000000000000000000000000000000000000000000000600052601160045260246000fd5b600061163b8261119f565b91506116468361119f565b92508282026116548161119f565b9150828204841483151761166b5761166a611601565b5b5092915050565b600061167d8261119f565b91506116888361119f565b92508282019050808211156116a05761169f611601565b5b92915050565b7f5374616b696e6720706572696f64206e6f7420796574206f7665720000000000600082015250565b60006116dc601b83611584565b91506116e7826116a6565b602082019050919050565b6000602082019050818103600083015261170b816116cf565b9050919050565b600081519050611721816111d8565b92915050565b60006020828403121561173d5761173c6111d3565b5b600061174b84828501611712565b91505092915050565b7f496e73756666696369656e7420636f6e74726163742062616c616e6365000000600082015250565b600061178a601d83611584565b915061179582611754565b602082019050919050565b600060208201905081810360008301526117b98161177d565b9050919050565b60006040820190506117d560008301856112f0565b6117e260208301846111a9565b9392505050565b6117f2816113ae565b81146117fd57600080fd5b50565b60008151905061180f816117e9565b92915050565b60006020828403121561182b5761182a6111d3565b5b600061183984828501611800565b91505092915050565b7f5472616e73666572206661696c65640000000000000000000000000000000000600082015250565b6000611878600f83611584565b915061188382611842565b602082019050919050565b600060208201905081810360008301526118a78161186b565b9050919050565b60006040820190506118c360008301856111a9565b6118d060208301846111a9565b9392505050565b7f496e76616c6964207374616b696e67206475726174696f6e0000000000000000600082015250565b600061190d601883611584565b9150611918826118d7565b602082019050919050565b6000602082019050818103600083015261193c81611900565b9050919050565b7f416d6f756e74206d7573742062652067726561746572207468616e2030000000600082015250565b6000611979601d83611584565b915061198482611943565b602082019050919050565b600060208201905081810360008301526119a88161196c565b9050919050565b60006060820190506119c460008301866112f0565b6119d160208301856112f0565b6119de60408301846111a9565b949350505050565b7f4e487b7100000000000000000000000000000000000000000000000000000000600052601260045260246000fd5b6000611a208261119f565b9150611a2b8361119f565b925082611a3b57611a3a6119e6565b5b828204905092915050565b7f4e6f20746f6b656e7320746f2077697468647261770000000000000000000000600082015250565b6000611a7c601583611584565b9150611a8782611a46565b602082019050919050565b60006020820190508181036000830152611aab81611a6f565b9050919050565b7f456d657267656e6379207472616e73666572206661696c656400000000000000600082015250565b6000611ae8601983611584565b9150611af382611ab2565b602082019050919050565b60006020820190508181036000830152611b1781611adb565b905091905056fea2646970667358221220577051ce4d2c1f93488a0aca3a57a3e89b68d2fb669ff45944c00bb0f16de38864736f6c63430008140033",
  "linkReferences": {},
  "deployedLinkReferences": {}
}