{
  "_format": "hh-sol-artifact-1",
  "contractName": "StakingContract",
  "sourceName": "contracts/StakingBurrito.sol",
  "abi": [
    {
      "inputs": [
        {
          "internalType": "address",
          "name": "_burritoTokenAddress",
          "type": "address"
        }
      ],
      "stateMutability": "nonpayable",
      "type": "constructor"
    },
    {
      "inputs": [
        {
          "internalType": "address",
          "name": "owner",
          "type": "address"
        }
      ],
      "name": "OwnableInvalidOwner",
      "type": "error"
    },
    {
      "inputs": [
        {
          "internalType": "address",
          "name": "account",
          "type": "address"
        }
      ],
      "name": "OwnableUnauthorizedAccount",
      "type": "error"
    },
    {
      "inputs": [],
      "name": "ReentrancyGuardReentrantCall",
      "type": "error"
    },
    {
      "anonymous": false,
      "inputs": [
        {
          "indexed": true,
          "internalType": "address",
          "name": "owner",
          "type": "address"
        },
        {
          "indexed": false,
          "internalType": "uint256",
          "name": "amount",
          "type": "uint256"
        }
      ],
      "name": "EmergencyWithdraw",
      "type": "event"
    },
    {
      "anonymous": false,
      "inputs": [
        {
          "indexed": true,
          "internalType": "address",
          "name": "previousOwner",
          "type": "address"
        },
        {
          "indexed": true,
          "internalType": "address",
          "name": "newOwner",
          "type": "address"
        }
      ],
      "name": "OwnershipTransferred",
      "type": "event"
    },
    {
      "anonymous": false,
      "inputs": [
        {
          "indexed": true,
          "internalType": "address",
          "name": "user",
          "type": "address"
        },
        {
          "indexed": false,
          "internalType": "uint256",
          "name": "amount",
          "type": "uint256"
        },
        {
          "indexed": false,
          "internalType": "uint256",
          "name": "duration",
          "type": "uint256"
        }
      ],
      "name": "Staked",
      "type": "event"
    },
    {
      "anonymous": false,
      "inputs": [
        {
          "indexed": true,
          "internalType": "address",
          "name": "user",
          "type": "address"
        },
        {
          "indexed": false,
          "internalType": "uint256",
          "name": "amount",
          "type": "uint256"
        },
        {
          "indexed": false,
          "internalType": "uint256",
          "name": "reward",
          "type": "uint256"
        }
      ],
      "name": "Unstaked",
      "type": "event"
    },
    {
      "inputs": [],
      "name": "ONE_MONTH",
      "outputs": [
        {
          "internalType": "uint256",
          "name": "",
          "type": "uint256"
        }
      ],
      "stateMutability": "view",
      "type": "function"
    },
    {
      "inputs": [],
      "name": "ONE_YEAR",
      "outputs": [
        {
          "internalType": "uint256",
          "name": "",
          "type": "uint256"
        }
      ],
      "stateMutability": "view",
      "type": "function"
    },
    {
      "inputs": [],
      "name": "annualAPR",
      "outputs": [
        {
          "internalType": "uint256",
          "name": "",
          "type": "uint256"
        }
      ],
      "stateMutability": "view",
      "type": "function"
    },
    {
      "inputs": [],
      "name": "burritoToken",
      "outputs": [
        {
          "internalType": "contract IERC20",
          "name": "",
          "type": "address"
        }
      ],
      "stateMutability": "view",
      "type": "function"
    },
    {
      "inputs": [
        {
          "internalType": "address",
          "name": "_user",
          "type": "address"
        }
      ],
      "name": "calculateReward",
      "outputs": [
        {
          "internalType": "uint256",
          "name": "",
          "type": "uint256"
        }
      ],
      "stateMutability": "view",
      "type": "function"
    },
    {
      "inputs": [],
      "name": "killSwitch",
      "outputs": [],
      "stateMutability": "nonpayable",
      "type": "function"
    },
    {
      "inputs": [],
      "name": "monthlyAPR",
      "outputs": [
        {
          "internalType": "uint256",
          "name": "",
          "type": "uint256"
        }
      ],
      "stateMutability": "view",
      "type": "function"
    },
    {
      "inputs": [],
      "name": "owner",
      "outputs": [
        {
          "internalType": "address",
          "name": "",
          "type": "address"
        }
      ],
      "stateMutability": "view",
      "type": "function"
    },
    {
      "inputs": [],
      "name": "renounceOwnership",
      "outputs": [],
      "stateMutability": "nonpayable",
      "type": "function"
    },
    {
      "inputs": [
        {
          "internalType": "uint256",
          "name": "_apr",
          "type": "uint256"
        }
      ],
      "name": "setAnnualAPR",
      "outputs": [],
      "stateMutability": "nonpayable",
      "type": "function"
    },
    {
      "inputs": [
        {
          "internalType": "uint256",
          "name": "_apr",
          "type": "uint256"
        }
      ],
      "name": "setMonthlyAPR",
      "outputs": [],
      "stateMutability": "nonpayable",
      "type": "function"
    },
    {
      "inputs": [
        {
          "internalType": "uint256",
          "name": "_amount",
          "type": "uint256"
        },
        {
          "internalType": "uint256",
          "name": "_duration",
          "type": "uint256"
        }
      ],
      "name": "stake",
      "outputs": [],
      "stateMutability": "nonpayable",
      "type": "function"
    },
    {
      "inputs": [
        {
          "internalType": "address",
          "name": "",
          "type": "address"
        }
      ],
      "name": "stakes",
      "outputs": [
        {
          "internalType": "uint256",
          "name": "amount",
          "type": "uint256"
        },
        {
          "internalType": "uint256",
          "name": "timestamp",
          "type": "uint256"
        },
        {
          "internalType": "uint256",
          "name": "duration",
          "type": "uint256"
        }
      ],
      "stateMutability": "view",
      "type": "function"
    },
    {
      "inputs": [
        {
          "internalType": "address",
          "name": "newOwner",
          "type": "address"
        }
      ],
      "name": "transferOwnership",
      "outputs": [],
      "stateMutability": "nonpayable",
      "type": "function"
    },
    {
      "inputs": [],
      "name": "unstake",
      "outputs": [],
      "stateMutability": "nonpayable",
      "type": "function"
    }
  ],
  "bytecode": "0x608060405266271471148780006004556702bc985aedb500006005553480156200002857600080fd5b50604051620019453803806200194583398181016040528101906200004e919062000256565b336001600081905550600073ffffffffffffffffffffffffffffffffffffffff168173ffffffffffffffffffffffffffffffffffffffff1603620000cc5760006040517f1e4fbdf7000000000000000000000000000000000000000000000000000000008152600401620000c3919062000299565b60405180910390fd5b620000dd816200012660201b60201c565b5080600260006101000a81548173ffffffffffffffffffffffffffffffffffffffff021916908373ffffffffffffffffffffffffffffffffffffffff16021790555050620002b6565b6000600160009054906101000a900473ffffffffffffffffffffffffffffffffffffffff16905081600160006101000a81548173ffffffffffffffffffffffffffffffffffffffff021916908373ffffffffffffffffffffffffffffffffffffffff1602179055508173ffffffffffffffffffffffffffffffffffffffff168173ffffffffffffffffffffffffffffffffffffffff167f8be0079c531659141344cd1fd0a4f28419497f9722a3daafe3b4186f6b6457e060405160405180910390a35050565b600080fd5b600073ffffffffffffffffffffffffffffffffffffffff82169050919050565b60006200021e82620001f1565b9050919050565b620002308162000211565b81146200023c57600080fd5b50565b600081519050620002508162000225565b92915050565b6000602082840312156200026f576200026e620001ec565b5b60006200027f848285016200023f565b91505092915050565b620002938162000211565b82525050565b6000602082019050620002b0600083018462000288565b92915050565b61167f80620002c66000396000f3fe608060405234801561001057600080fd5b50600436106100f55760003560e01c8063854e518a11610097578063b81c21e011610066578063b81c21e01461021a578063d82e396214610236578063f2fde38b14610266578063f85d428214610282576100f5565b8063854e518a146101b657806386940105146101d45780638da5cb5b146101f2578063ada1469814610210576100f5565b80632def6620116100d35780632def66201461016857806361a0c76414610172578063715018a6146101905780637b0472f01461019a576100f5565b806316934fc4146100fa57806316d3bfbb1461012c57806320988cef1461014a575b600080fd5b610114600480360381019061010f9190610ece565b61029e565b60405161012393929190610f14565b60405180910390f35b6101346102c8565b6040516101419190610f4b565b60405180910390f35b6101526102ce565b60405161015f9190610f4b565b60405180910390f35b6101706102d3565b005b61017a61068b565b6040516101879190610f4b565b60405180910390f35b610198610691565b005b6101b460048036038101906101af9190610f92565b6106a5565b005b6101be6108b9565b6040516101cb9190610f4b565b60405180910390f35b6101dc6108bf565b6040516101e99190611031565b60405180910390f35b6101fa6108e5565b604051610207919061105b565b60405180910390f35b61021861090f565b005b610234600480360381019061022f9190611076565b610b38565b005b610250600480360381019061024b9190610ece565b610b4a565b60405161025d9190610f4b565b60405180910390f35b610280600480360381019061027b9190610ece565b610c2e565b005b61029c60048036038101906102979190611076565b610cb4565b005b60036020528060005260406000206000915090508060000154908060010154908060020154905083565b61016d81565b601e81565b6102db610cc6565b6000600360003373ffffffffffffffffffffffffffffffffffffffff1673ffffffffffffffffffffffffffffffffffffffff16815260200190815260200160002060405180606001604052908160008201548152602001600182015481526020016002820154815250509050600081602001511161038e576040517f08c379a000000000000000000000000000000000000000000000000000000000815260040161038590611100565b60405180910390fd5b6201518081604001516103a1919061114f565b81602001516103b09190611191565b4210156103f2576040517f08c379a00000000000000000000000000000000000000000000000000000000081526004016103e990611211565b60405180910390fd5b60006103fd33610b4a565b905060008183600001516104119190611191565b905080600260009054906101000a900473ffffffffffffffffffffffffffffffffffffffff1673ffffffffffffffffffffffffffffffffffffffff166370a08231306040518263ffffffff1660e01b815260040161046f919061105b565b602060405180830381865afa15801561048c573d6000803e3d6000fd5b505050506040513d601f19601f820116820180604052508101906104b09190611246565b10156104f1576040517f08c379a00000000000000000000000000000000000000000000000000000000081526004016104e8906112bf565b60405180910390fd5b600360003373ffffffffffffffffffffffffffffffffffffffff1673ffffffffffffffffffffffffffffffffffffffff168152602001908152602001600020600080820160009055600182016000905560028201600090555050600260009054906101000a900473ffffffffffffffffffffffffffffffffffffffff1673ffffffffffffffffffffffffffffffffffffffff1663a9059cbb33836040518363ffffffff1660e01b81526004016105a89291906112df565b6020604051808303816000875af11580156105c7573d6000803e3d6000fd5b505050506040513d601f19601f820116820180604052508101906105eb9190611340565b61062a576040517f08c379a0000000000000000000000000000000000000000000000000000000008152600401610621906113b9565b60405180910390fd5b3373ffffffffffffffffffffffffffffffffffffffff167f7fc4727e062e336010f2c282598ef5f14facb3de68cf8195c2f23e1454b2b74e8460000151846040516106769291906113d9565b60405180910390a2505050610689610d0c565b565b60045481565b610699610d16565b6106a36000610d9d565b565b6106ad610cc6565b601e8114806106bd575061016d81145b6106fc576040517f08c379a00000000000000000000000000000000000000000000000000000000081526004016106f39061144e565b60405180910390fd5b6000821161073f576040517f08c379a0000000000000000000000000000000000000000000000000000000008152600401610736906114ba565b60405180910390fd5b600260009054906101000a900473ffffffffffffffffffffffffffffffffffffffff1673ffffffffffffffffffffffffffffffffffffffff166323b872dd3330856040518463ffffffff1660e01b815260040161079e939291906114da565b6020604051808303816000875af11580156107bd573d6000803e3d6000fd5b505050506040513d601f19601f820116820180604052508101906107e19190611340565b50604051806060016040528083815260200142815260200182815250600360003373ffffffffffffffffffffffffffffffffffffffff1673ffffffffffffffffffffffffffffffffffffffff1681526020019081526020016000206000820151816000015560208201518160010155604082015181600201559050503373ffffffffffffffffffffffffffffffffffffffff167f1449c6dd7851abc30abf37f57715f492010519147cc2652fbc38202c18a6ee9083836040516108a59291906113d9565b60405180910390a26108b5610d0c565b5050565b60055481565b600260009054906101000a900473ffffffffffffffffffffffffffffffffffffffff1681565b6000600160009054906101000a900473ffffffffffffffffffffffffffffffffffffffff16905090565b610917610d16565b6000600260009054906101000a900473ffffffffffffffffffffffffffffffffffffffff1673ffffffffffffffffffffffffffffffffffffffff166370a08231306040518263ffffffff1660e01b8152600401610974919061105b565b602060405180830381865afa158015610991573d6000803e3d6000fd5b505050506040513d601f19601f820116820180604052508101906109b59190611246565b9050600081116109fa576040517f08c379a00000000000000000000000000000000000000000000000000000000081526004016109f19061155d565b60405180910390fd5b600260009054906101000a900473ffffffffffffffffffffffffffffffffffffffff1673ffffffffffffffffffffffffffffffffffffffff1663a9059cbb610a406108e5565b836040518363ffffffff1660e01b8152600401610a5e9291906112df565b6020604051808303816000875af1158015610a7d573d6000803e3d6000fd5b505050506040513d601f19601f82011682018060405250810190610aa19190611340565b610ae0576040517f08c379a0000000000000000000000000000000000000000000000000000000008152600401610ad7906115c9565b60405180910390fd5b610ae86108e5565b73ffffffffffffffffffffffffffffffffffffffff167f5fafa99d0643513820be26656b45130b01e1c03062e1266bf36f88cbd3bd969582604051610b2d9190610f4b565b60405180910390a250565b610b40610d16565b8060058190555050565b600080600360008473ffffffffffffffffffffffffffffffffffffffff1673ffffffffffffffffffffffffffffffffffffffff168152602001908152602001600020604051806060016040529081600082015481526020016001820154815260200160028201548152505090506000816020015103610bcd576000915050610c29565b6000816040015190506000601e8214610be857600554610bec565b6004545b905060006813c9647e25a994000083838660000151610c0b919061114f565b610c15919061114f565b610c1f9190611618565b9050809450505050505b919050565b610c36610d16565b600073ffffffffffffffffffffffffffffffffffffffff168173ffffffffffffffffffffffffffffffffffffffff1603610ca85760006040517f1e4fbdf7000000000000000000000000000000000000000000000000000000008152600401610c9f919061105b565b60405180910390fd5b610cb181610d9d565b50565b610cbc610d16565b8060048190555050565b600260005403610d02576040517f3ee5aeb500000000000000000000000000000000000000000000000000000000815260040160405180910390fd5b6002600081905550565b6001600081905550565b610d1e610e63565b73ffffffffffffffffffffffffffffffffffffffff16610d3c6108e5565b73ffffffffffffffffffffffffffffffffffffffff1614610d9b57610d5f610e63565b6040517f118cdaa7000000000000000000000000000000000000000000000000000000008152600401610d92919061105b565b60405180910390fd5b565b6000600160009054906101000a900473ffffffffffffffffffffffffffffffffffffffff16905081600160006101000a81548173ffffffffffffffffffffffffffffffffffffffff021916908373ffffffffffffffffffffffffffffffffffffffff1602179055508173ffffffffffffffffffffffffffffffffffffffff168173ffffffffffffffffffffffffffffffffffffffff167f8be0079c531659141344cd1fd0a4f28419497f9722a3daafe3b4186f6b6457e060405160405180910390a35050565b600033905090565b600080fd5b600073ffffffffffffffffffffffffffffffffffffffff82169050919050565b6000610e9b82610e70565b9050919050565b610eab81610e90565b8114610eb657600080fd5b50565b600081359050610ec881610ea2565b92915050565b600060208284031215610ee457610ee3610e6b565b5b6000610ef284828501610eb9565b91505092915050565b6000819050919050565b610f0e81610efb565b82525050565b6000606082019050610f296000830186610f05565b610f366020830185610f05565b610f436040830184610f05565b949350505050565b6000602082019050610f606000830184610f05565b92915050565b610f6f81610efb565b8114610f7a57600080fd5b50565b600081359050610f8c81610f66565b92915050565b60008060408385031215610fa957610fa8610e6b565b5b6000610fb785828601610f7d565b9250506020610fc885828601610f7d565b9150509250929050565b6000819050919050565b6000610ff7610ff2610fed84610e70565b610fd2565b610e70565b9050919050565b600061100982610fdc565b9050919050565b600061101b82610ffe565b9050919050565b61102b81611010565b82525050565b60006020820190506110466000830184611022565b92915050565b61105581610e90565b82525050565b6000602082019050611070600083018461104c565b92915050565b60006020828403121561108c5761108b610e6b565b5b600061109a84828501610f7d565b91505092915050565b600082825260208201905092915050565b7f4e6f20746f6b656e73207374616b656400000000000000000000000000000000600082015250565b60006110ea6010836110a3565b91506110f5826110b4565b602082019050919050565b60006020820190508181036000830152611119816110dd565b9050919050565b7f4e487b7100000000000000000000000000000000000000000000000000000000600052601160045260246000fd5b600061115a82610efb565b915061116583610efb565b925082820261117381610efb565b9150828204841483151761118a57611189611120565b5b5092915050565b600061119c82610efb565b91506111a783610efb565b92508282019050808211156111bf576111be611120565b5b92915050565b7f5374616b696e6720706572696f64206e6f7420796574206f7665720000000000600082015250565b60006111fb601b836110a3565b9150611206826111c5565b602082019050919050565b6000602082019050818103600083015261122a816111ee565b9050919050565b60008151905061124081610f66565b92915050565b60006020828403121561125c5761125b610e6b565b5b600061126a84828501611231565b91505092915050565b7f496e73756666696369656e7420636f6e74726163742062616c616e6365000000600082015250565b60006112a9601d836110a3565b91506112b482611273565b602082019050919050565b600060208201905081810360008301526112d88161129c565b9050919050565b60006040820190506112f4600083018561104c565b6113016020830184610f05565b9392505050565b60008115159050919050565b61131d81611308565b811461132857600080fd5b50565b60008151905061133a81611314565b92915050565b60006020828403121561135657611355610e6b565b5b60006113648482850161132b565b91505092915050565b7f5472616e73666572206661696c65640000000000000000000000000000000000600082015250565b60006113a3600f836110a3565b91506113ae8261136d565b602082019050919050565b600060208201905081810360008301526113d281611396565b9050919050565b60006040820190506113ee6000830185610f05565b6113fb6020830184610f05565b9392505050565b7f496e76616c6964207374616b696e67206475726174696f6e0000000000000000600082015250565b60006114386018836110a3565b915061144382611402565b602082019050919050565b600060208201905081810360008301526114678161142b565b9050919050565b7f416d6f756e74206d7573742062652067726561746572207468616e2030000000600082015250565b60006114a4601d836110a3565b91506114af8261146e565b602082019050919050565b600060208201905081810360008301526114d381611497565b9050919050565b60006060820190506114ef600083018661104c565b6114fc602083018561104c565b6115096040830184610f05565b949350505050565b7f4e6f20746f6b656e7320746f2077697468647261770000000000000000000000600082015250565b60006115476015836110a3565b915061155282611511565b602082019050919050565b600060208201905081810360008301526115768161153a565b9050919050565b7f456d657267656e6379207472616e73666572206661696c656400000000000000600082015250565b60006115b36019836110a3565b91506115be8261157d565b602082019050919050565b600060208201905081810360008301526115e2816115a6565b9050919050565b7f4e487b7100000000000000000000000000000000000000000000000000000000600052601260045260246000fd5b600061162382610efb565b915061162e83610efb565b92508261163e5761163d6115e9565b5b82820490509291505056fea264697066735822122007ee94e7561d5694f93e9fe80098e6eb38086debe6cf0122a6f7cb13b995baaa64736f6c63430008140033",
  "linkReferences": {},
  "deployedLinkReferences": {}
}